:100000000C9429030C946D030C946D030C946D03F4
:100010000C946D030C946D030C946D030C946D03A0
:100020000C946D030C946D030C94552A0C94272B9F
:100030000C94C3200C946D030C946D030C946D030D
:100040000C946D030C946D030C946D030C946D0370
:100050000C946D030C942A210C946D030C946D0385
:100060000C946D030C946D030C946D030C946D0350
:100070000C946D030C946D030C946D030C946D0340
:100080000C946D030C946D030C946D030C946D0330
:100090000C946D030C946D030C946D030C946D0320
:1000A0000C946D030C946D030C946D03C706CD0680
:1000B000D106D406D806DC06E006E406E906ED061D
:1000C000F106F506F806FC060007040708070D0709
:1000D0005716571691169116C816EA165318901807
:1000E00030179018D717D7174C18901890188C18ED
:1000F000E417E417E417E417E417E417E417E41728
:10010000E417E417E417E417E417E417E417E41717
:10011000F61704180B1812181C182419241937196B
:1001200037192D1937193719371924192419331983
:100130003719371933198C2BB32BA12CB32BA12CC6
:10014000FB2B1E2CA12C742C832C07634236B79BEF
:10015000D8A71A39685618AEBAAB558C1D3CB7CC27
:100160005763BD6DEDFD753EF6177231BF0000009F
:10017000803F05A84CCDB2D44EB93836A9020C50F8
:10018000B9918688083CA6AAAA2ABE000000803F32
:10019000290035002E00E100354100001E0034002A
:1001A000040033616402E3001F00360012001400F3
:1001B00064002B622000370008000D0050002A0068
:1001C0002100130018000E004F004A0022001C00FE
:1001D0000C001B00000065642F004C00000026028C
:1001E00000004D0030002A00000027020000E2005D
:1001F00023000900070005000000296124000A000F
:100200000B00100052004B002500060017001A00DA
:1002100051002C0026001500110019002F02286142
:1002200027000F0016001D0030024E002E0038007F
:100230002D0031000151000001000100010001000A
:10024000010000003A001E0220022202010001000B
:100250003B001F0221022302010001003C002F028B
:1002600026022F00010001003D003002270230006D
:10027000010001003E00310235003502000001009E
:100280000100010000000100000001000100010068
:1002900000000100000001003F0052005100240254
:1002A000000001004000240021001E0001000100A8
:1002B0004100250022001F003700010042002600F7
:1002C0002300200027000100430025022E023100F8
:1002D0002E00010044004500010001000100000063
:1002E0000100010001000100010000000100010007
:1002F000010001000100010001000100F200010005
:10030000010001000100F000F1000100F400010013
:1003100001000100F3000100F500010001000100EF
:1003200001000100000001000100010000000100C7
:1003300000000100010001000000010000000100B8
:1003400001000100010001000000010001000100A6
:1003500001000100A9000100010001000100AC0042
:10036000AA00B600010001000100AB00A8000100D6
:100370000100010001000100010001000100010075
:10038000AE000100010000006801F000B400780038
:100390005A007F3F1F643214643214783C1E1E14CE
:1003A0000A05000000000001010101010101010135
:1003B0000202020202020202020303030303030316
:1003C00003040404040404050505050506060606E1
:1003D0000607070707080808080909090A0A0A0A98
:1003E0000B0B0B0C0C0C0D0D0D0E0E0F0F0F101038
:1003F00011111112121313141415151616171718BC
:100400001819191A1A1B1C1C1D1D1E1F1F20202124
:1004100022222324252526272728292A2B2B2C2D69
:100420002E2F2F30313233343536363738393A3B88
:100430003C3D3E3F4041424344464748494A4B4C7D
:100440004D4F50515253555657585A5B5C5E5F6042
:100450006263646667696A6C6D6E707173747678D6
:10046000797B7C7E8081838486888A8B8D8F919234
:100470009496989A9B9D9FA1A3A5A7A9ABADAFB158
:10048000B3B5B7B9BBBDBFC1C4C6C8CACCCFD1D341
:10049000D6D8DADCDFE1E4E6E8EBEDF0F2F5F7FAE6
:1004A000FCFF16034500720067006F0044006F00F8
:1004B0007800200045005A00000016034500720035
:1004C00067006F0044006F007800200045005A006C
:1004D00000000403090409026D00040100A0FA09E8
:1004E0000400000103010100092111010001224063
:1004F000000705810308000A090401000103010245
:1005000000092111010001224D00070582030800A6
:100510000A09040200010300000009211101000181
:100520002236000705830308000A090403000103BB
:100530000000000921110100012239000705840390
:100540002000011201100100000008EDFE07130158
:10055000000102000105010906A101050719E029B2
:10056000E715002501950875018102050819012983
:10057000059505750191029501750391010507190E
:100580000029F71500250195F875018102C00501C4
:100590000980A10185021601002603001A81002AA4
:1005A0008300751095018100C0050C0901A101852A
:1005B00003160100269C021A01002A9C0275109560
:1005C000018100C005010902A1010901A10005097D
:1005D000190129051500250195057501810295016F
:1005E000750381010501093009311581257F9502C7
:1005F0007508810609381581257F950175088106E2
:10060000050C0A38021581257F950175088106C001
:10061000C005010906A101050719E029E715002514
:100620000195087501810295017508810105081978
:100630000129059505750191029501750391010543
:1006400007190029FF150026FF009506750881008F
:10065000C00011241FBECFEFDAE0DEBFCDBF04B66D
:1006600003FE24C08091BA039091BB03A091BC0308
:10067000B091BD038730904BA740B04BB9F41092B6
:10068000BA031092BB031092BC031092BD0314BEB8
:1006900084B7877F84BF88E10FB6F89480936000A9
:1006A000109260000FBEE0E0FFE3099511E0A0E0CA
:1006B000B1E0EAEBF0E602C005900D92AC3DB10767
:1006C000D9F713E0ACEDB1E001C01D92AA3BB10730
:1006D000E1F70E9487270C945B300C940000109285
:1006E000B9008AE08093B800089594EA9093BC0022
:1006F0009091BC0097FFFCCF9091B900987F983003
:1007000021F0903111F081E008958093BB0084E8DE
:100710008093BC008091BC0087FFFCCF8091B90022
:10072000887F883111F0803471F780E0089584E982
:100730008093BC008091BC0084FDFCCF0895809321
:10074000BB0084E88093BC008091BC0087FFFCCF95
:100750009091B900987F81E0983209F480E0089583
:1007600084E88093BC008091BC0087FFFCCF80911F
:10077000BB00089580B38C7080BB81B3836F81BB55
:10078000089580910001811115C080E40E947503D5
:100790008093000181110CC082E10E949F0380932D
:1007A0000001811105C08FEF0E949F03809300011B
:1007B0000E94970384B1807F84B985B1807F85B919
:1007C0008AB1837F8AB98BB1837F8BB93E98469873
:1007D00008950C9410060E94AD05809300010E94BC
:1007E000C1030E94BA03E1E3F2E02DED31E0119282
:1007F00080E090E0D901A80FB91F1C9201968630C5
:100800009105C1F72A5F3F4F82E0EF33F80779F790
:100810000C94F3080E94AD05809300010E94C1036F
:100820000E94BA03E1E3F2E0119282E0EF33F807AD
:10083000D9F7089596E0899FA001112420E030E0C7
:1008400080E043525E4F61E070E0FA01E20FF31F77
:100850009081992319F09150908307C0FB01022EDB
:1008600001C0EE0F0A94EAF78E2B2F5F3F4F263020
:10087000310559F7089596E0699FB001112420E0F1
:1008800030E090E063527E4FAFE0AC01022E02C038
:10089000559547950A94E2F740FF04C0FB01E20F2B
:1008A000F31FA0832F5F3F4F2630310571F7089566
:1008B0008F929F92BF92CF92EF92FF920F931F93CE
:1008C000CF93DF9380910001882379F08091DC0140
:1008D0008F5F8093DC01811108C00E94AD05809379
:1008E0000001811102C00E943F0581E3882E82E051
:1008F000982EC0E0D0E0EE24E394F12C01E01C2F10
:10090000C73000F58091000181113CC080E40E9455
:10091000750380930001811112C082E10E949F0340
:100920008093000181110BC0C7010C2E01C0880FFC
:100930000A94EAF780950E949F03809300010E9429
:10094000970320C0CA30A1F028F4C83059F0C9304C
:1009500061F005C0CC3089F070F0CD3089F0209A7C
:10096000289810C0219A29980DC0229A2A980AC066
:10097000239A2B9807C0529A01C0539A5B9802C0E1
:100980003E9A469880EA8A95F1F7812F0E941A04D0
:10099000B82E173018F580910001811144C080E411
:1009A0000E94750380930001882311F0C12C12C0AE
:1009B00083E10E949F03809300018111F7CF81E4BE
:1009C0000E947503809300018111F0CF0E94B00353
:1009D000C82EC0940E9497032C2D26C02FB12170E1
:1009E0002027799B02C080E001C082E0282B7C9BFD
:1009F00002C080E001C084E0282B7D9B02C080E023
:100A000001C088E0282B7E9B02C080E001C080E10D
:100A1000282B9FB19095991F9927991F9295990F0F
:100A2000907E292B01C020E0F4018081C22ECB20D2
:100A30009B2D90959823C92A612F8C250E943B04F9
:100A4000F401C1924F010E94C1032196CE30D1051D
:100A500009F055CF0E94F50881E0DF91CF911F91F9
:100A60000F91FF90EF90CF90BF909F908F9008953F
:100A7000E82FF0E0EF5CFD4F8081089508955698CF
:100A80005E9825982D9826982E9827982F988FEF66
:100A900090E0909389008093880090938B008093DE
:100AA0008A0090938D0080938C00259A2D9A2FEFC9
:100AB00080E792E0215080409040E1F700C00000C4
:100AC000269A2E9A2FEF80E792E0215080409040A6
:100AD000E1F700C00000279A2F9A2FEF80E792E0FD
:100AE000215080409040E1F700C0000025982D98EB
:100AF0002FEF80E792E0215080409040E1F700C066
:100B0000000026982E982FEF80E792E02150804039
:100B10009040E1F700C0000027982F9856985E9803
:100B200025982D9826982E9827982F98089589EA29
:100B30008093800089E08093810024982C983F98CE
:100B40008AB18F7C8AB96E98479A8BB180638BB9D2
:100B5000769A0E943F050C940D0680E28093000176
:100B600080913F0281110EC00E946F0381E080934B
:100B70003F022FEF83ED90E3215080409040E1F75A
:100B800000C0000080E40E94750380930001811181
:100B90002EC00E949F0380930001811128C00E94F3
:100BA0009F0380930001811122C08FE30E949F0365
:100BB0008093000181111BC00E94970380E40E9472
:100BC000750380930001811112C08CE00E949F0385
:100BD0008093000181110BC00E949F03809300014C
:100BE000811105C08FE30E949F03809300010E9442
:100BF0009703809100010895089561110BC0FC01D5
:100C00008281882321F085EE0E94971403C085EE2F
:100C10000E94A61580E090E0089581E00C94D80B26
:100C20006091020370910303809104039091050386
:100C30000E94651F56985E9825982D9826982E98A4
:100C400027982F98813019F0823021F00895259A45
:100C50002D9A0895269A2E9A089581E0089581E0AC
:100C600008950C942F060E9412192FEF84E39CE044
:100C7000215080409040E1F700C000000C945021CA
:100C8000FF920F931F93CF93DF938C01FC01C081E0
:100C9000D18180919102811113C08281882349F012
:100CA000CE010E945A1EF82E682FCE010E94FE1D12
:100CB00004C0CE010E942D1EF82EBE018F2D04C04F
:100CC000CE010E945A1EBE010E940909EC01B80122
:100CD0000E943106882309F47FC2B801CE010E9428
:100CE000680B882309F478C2B801CE010E94B40BC6
:100CF000882309F471C2CA3CFCE5DF0741F4F8011E
:100D00008281882309F468C20E94090F65C2CB3C26
:100D10008CE5D80708F024C1C33C9CE5D90741F411
:100D2000F8018281882309F457C20E94AA0F54C295
:100D3000C43CECE5DE0708F0D0C0C531FCE5DF07B8
:100D400008F07DC0C2308CE5D80708F4A0C0F801D7
:100D50008281882309F493C00E94D91F811102C0A7
:100D60000E94B81F0E94EC1F90E09093AC03809308
:100D7000AB03FE01E350FC45E231F10520F4EA5AF1
:100D8000FF4F0C940D308091AB03816003C08091C4
:100D9000AB0382608093AB034BC08091AB03846054
:100DA000F9CF8091AB0313C08091AB038061F2CF88
:100DB0008091AB038062EECF8091AB038064EACF79
:100DC0008091AB038068E6CF8091AB03846088603C
:100DD000E1CF8091AB038E7FDDCF8091AB038D7F20
:100DE000D9CF8091AB038B7FD5CF8091AB0313C05C
:100DF0008091AB038F7ECECF8091AB038F7DCACF26
:100E00008091AB038F7BC6CF8091AB038F77C2CF2E
:100E10008091AB038B7F877FBDCF9091AB0397FB16
:100E2000882780F921E0822780FB97F99093AB0314
:100E30008091AB030E94F01F0E941219CDC1C531F1
:100E4000DC45C1F40E942C1F382FF80122818091CB
:100E50000301909104012223B1F13A7A21E009F4CF
:100E600020E020934002222361F165E30E945C2090
:100E70000E94F91E81E08093450280934602C801DA
:100E8000DF91CF911F910F91FF900C942D06C1150A
:100E90009CE5D90741F4F8018281882309F49CC1BB
:100EA0000E94330699C1C130DC4521F7F8018281E7
:100EB000882309F491C180912F03816080932F03CF
:100EC0008BC169E2D3CF20914002222311F065E368
:100ED00001C069E20E946720CBCFC63C8CE5D807F1
:100EE00041F4F8018281882309F476C10E94AB0E97
:100EF00073C1C73C9CE5D907C0F4C43CECE5DE07F0
:100F000041F4F8018281882309F466C10E94A00F90
:100F100063C1C53CDC4509F0ADCFF801828188236F
:100F200009F45AC10E94920E57C1F8018281C83C4F
:100F3000FCE5DF0731F4882309F44EC10E94DC0E82
:100F40004BC1C93CDC4530F4882309F445C10E94FB
:100F5000CA0E42C1882309F43FC10E94EE0E3CC173
:100F6000C03DECE5DE07C1F4F8018281882309F475
:100F700033C10E94640D653171058105910540F012
:100F80000E94640D673171058105910508F4BECF9B
:100F900085E10E94230F20C1C13DFCE5DF0708F079
:100FA00077C0CD3C8CE5D807B1F4F8018281882365
:100FB00009F412C10E94640D663071058105910526
:100FC00040F00E94640D683071058105910508F4B8
:100FD0009DCF86E0DECFCE3C9CE5D90728F5CB3C03
:100FE000ECE5DE0739F4F8018281882309F4F4C0C6
:100FF00081E0CFCFCC3CDC4509F03CCFF8018281C9
:10100000882309F4E9C00E94640D623071058105EE
:10101000910540F00E94640D6530710581059105D0
:1010200008F474CF82E0B5CFCE3C8CE5D807B1F49C
:10103000F8018281882309F4CFC00E94640D6930D1
:1010400071058105910540F00E94640D6E307105B7
:101050008105910508F45ACF89E09BCFCF3CDC4550
:1010600009F008CFF8018281882309F4B5C00E94F5
:10107000640D6F3071058105910540F00E94640D8B
:10108000643171058105910508F440CF8FE081CF6F
:10109000C33DECE5DE0761F5F8018281882351F05C
:1010A000109245020E94F5209093420280934102E3
:1010B00082E03DC00E942C1F85FF05C081E0809327
:1010C0004502809346028091450281110FC08091B4
:1010D0004102909142020E940121883C910530F426
:1010E00086E20E94971486E20E94A61582E030C034
:1010F000C43DFCE5DF0778F1C73DECE5DE0709F408
:101100004DC0C83DFCE5DF0709F44EC0C43DDC45D9
:1011100009F0B0CEF8018281882361F01092460276
:101120000E94F520909344028093430280E20E9443
:10113000071652C00E942C1F81FF05C081E08093DA
:10114000450280934602809146028823A9F180E2FD
:101150000E940E1641C0C13D8CE5D80731F4F8015C
:1011600082818823C9F188E114CFC23DDC4509F0B2
:1011700081CEF8018281882379F10E94640D693162
:1011800071058105910540F00E94640D6232710580
:101190008105910508F4BACE89E1FBCEF801828180
:1011A0008823D1F080E005C0F80182818823A1F076
:1011B00082E00E941B2810C080914302909144025B
:1011C0000E940121883C910510F687E20E94971445
:1011D00087E20E94A615BBCF80E0DF91CF911F91DF
:1011E0000F91FF9008950C9497050C94E903282F14
:1011F000882339F090E02A3010F44D960895069730
:10120000089587E290E0089508950C9404090C94E1
:10121000050996E0799FF001112494E5899FE00D7E
:10122000F11D1124E60FF11DEE0FFF1FE057FE4FD9
:10123000859194910895880F991F80579E4FFC01C6
:10124000859194910895CF93DF930E9409090E949C
:10125000BE0AEC01811520E49207C0F5C11580E3B8
:10126000D80708F0E5C0C03ED105D8F4C03CD10590
:1012700008F072C0C83AD10578F4C53AD10508F033
:101280006FC0C130D10509F475C108F42CC1C43058
:10129000D10508F06FC127C1CD3BD10508F46BC063
:1012A00022C1CF3FD10509F048F4C03FD10508F075
:1012B000B9C0C83ED10508F45DC115C1C11520E211
:1012C000D20708F457C1CE019F70AEC0C11584E5A6
:1012D000D807D8F4C11523E5D20708F0E4C0C1153A
:1012E00081E5D80740F4C11520E5D20708F0AAC06F
:1012F000DF70D06A3FC1C11582E5D80708F0BEC0D3
:10130000DC2FCC27C16FD06A35C1C11526E5D207C5
:1013100050F4C11585E5D80708F0DAC0DC2FCC27DA
:10132000C46FD06A27C1C11528E5D20708F4DBC015
:10133000C11589E5D80708F4D1C0CE0190568115B2
:10134000904208F0D0C08D2F8F710E943A0BDD279C
:10135000D0628F71D82B0EC1CE01805C910964C020
:10136000C53AD10509F4C2C0C63AD10509F4C1C0D5
:10137000C3E8D0E4FFC0C83AD10509F4BDC0C93AFA
:10138000D10509F4BCC0CA3AD10509F4BBC0CB3AB7
:10139000D10509F4BAC0CC3AD10509F4B9C0CB3BA8
:1013A000D10509F4B8C0CC3BD10509F4B7C0CD3A9A
:1013B000D10509F4B6C0C03BD10509F4B5C0CE3A99
:1013C000D10509F4B4C0CF3AD10509F4B3C0C13B8B
:1013D000D10509F4B2C0C23BD10509F4B1C0C33B89
:1013E000D10509F4B0C0C43BD10509F4AFC0C53B79
:1013F000D10509F4AEC0C63BD10509F4ADC0C73B69
:10140000D10509F4ACC0C83BD10509F4ABC0C93B58
:10141000D10509F4AAC0CA3BD10509F0A9C0CAE2A6
:10142000D6E4A8C0D065A6C00E941B09EC01A2C0EA
:10143000CE019927D3FF03C0EC01D86C9BC0EC010F
:10144000D06C98C02C2F237081E090E002C0880FF0
:10145000991F2A95E2F79C689E0174E036952795BE
:101460007A95E1F72370922BCF70C695C69520E24E
:10147000C29FE0011124C82BD92B7CC08C2F8695EC
:10148000869520E2829FC00111249E01237033279C
:10149000C1E0D0E002C0CC0FDD1F2A95E2F7C82BD7
:1014A000D92BDC6867C08C2F8695869520E2829FB9
:1014B000C00111249E0123703327C1E0D0E002C097
:1014C000CC0FDD1F2A95E2F7C82BD92BDA6852C062
:1014D000CF71DD27DC2FCC27D0624CC0DC2FCC278E
:1014E000C06FD06A47C0C0E0D0E044C0C1E8D0E4DB
:1014F00041C0C2E8D0E43EC0C2EED4E43BC0C9EE75
:10150000D4E438C0CAEED4E435C0C5EBD4E432C06C
:10151000C6EBD4E42FC0C3EBD4E42CC0C4EBD4E4BA
:1015200029C0C7EBD4E426C0CCECD4E423C0CDEC76
:10153000D4E420C0C3E8D5E41DC0CAE8D5E41AC08D
:10154000C2E9D5E417C0C4E9D5E414C0C1E2D6E4C9
:1015500011C0C3E2D6E40EC0C4E2D6E40BC0C5E2BB
:10156000D6E408C0C6E2D6E405C0C7E2D6E402C0AD
:10157000C0E0D4E4CE01DF91CF9108958238910587
:1015800049F1B0F48133910509F459C048F4893226
:10159000910509F44FC08A32910509F455C00895A8
:1015A0008533910509F441C08933910599F0089577
:1015B000833E910531F138F4803E910591F0823EF1
:1015C0009105A9F00895863E910501F1873E9105A8
:1015D00039F108952091AB0320FD3BC021FD39C0B6
:1015E00008958091AB0380FF34C089E341C08091AE
:1015F000AB0382FF32C08091AB0384FF2CC080E03C
:1016000037C08091AB0382FD28C0F5CF8091AB033A
:1016100083FF25C08091AB0384FDF1CF87EE28C006
:101620008091AB0383FD1BC0F5CF8091AB0385FF99
:1016300018C019C08091AB0385FF15C012C08091FE
:10164000AB0386FF12C013C08091AB0386FF0FC0AF
:101650000CC080EE0DC083EE0BC082EE09C086EE9A
:1016600007C085E305C089E203C081E301C08AE2C7
:1016700090E00895CF93C82F0E94EC1F282F30E0F0
:101680003093AC032093AB0382FF0DC08C2F887185
:10169000883019F4C77FC46006C08C2F84718430F1
:1016A00011F4CB7FC86023FF0DC08C2F8871883167
:1016B00019F4C77EC46106C08C2F8471843111F483
:1016C000CB7EC86124FDC77E8C2FCF9108950895ED
:1016D000CF93DF93EC01FB018281811102C081E095
:1016E00040C080915402811125C0C631DC45B9F754
:1016F0000E94670B81E0809354020E94F520909332
:1017000053028093520210924702109249021092A3
:10171000480210924B0210924A0210924D0210920F
:101720004C0210924F0210924E02109251021092EF
:10173000500216C080915202909153020E940121E2
:10174000883C910560F680914702E82FF0E0EE0FAB
:10175000FF1FE85BFD4FD183C0838F5F80934702FB
:1017600080E0DF91CF910895CF93DF93EC01C130FA
:1017700080E8D807C8F0FB0182818823A9F0809116
:101780005502811109C08CE090E00E9413300E9444
:10179000D80B81E0809355020E94DF0BCE019F772A
:1017A0000E94A70C0E945B0C81E0DF91CF9108950D
:1017B00080935602682F8CE090E00C942730E091E3
:1017C0000301F091040180818093600381FF03C0D5
:1017D00081EE0E94A6158091600385FF03C085EE0F
:1017E0000E94A6158091600380FF03C080EE0E94D6
:1017F000A6158091600384FF03C084EE0E94A615A5
:101800008091600382FF03C082EE0E94A615809142
:10181000600386FF03C086EE0E94A61580916003D8
:1018200083FF03C083EE0E94A6158091600387FFAB
:1018300003C087EE0E94A61580915602823001F106
:10184000A8F48823C9F0813079F580EE0E949714BE
:1018500081EE0E94971488E10E94971488E10E940B
:10186000A61581EE0E94A61580EE1CC0843081F082
:101870008530D1F486EE01C082EE0E94971414C028
:1018800082EE0E94971487E50E94971487E50AC0AC
:1018900086EE0E94971486EE0E94A61588E10E94AB
:1018A000971488E10E94A6158FE39CE90197F1F750
:1018B00000C00000089580915602813049F030F058
:1018C000823021F0853051F486EE06C082EE04C0ED
:1018D0008CE20E9497148CE20E94A615809160030E
:1018E00081FF03C081EE0E9497148091600385FF01
:1018F00003C085EE0E9497148091600380FF03C0AF
:1019000080EE0E9497148091600384FF03C084EEF0
:101910000E9497148091600382FF03C082EE0E94B0
:1019200097148091600386FF03C086EE0E9497148F
:101930008091600383FF03C083EE0E94971480911F
:10194000600387FF03C087EE0C9497140895FF92FD
:101950000F931F93CF93DF938C01CCE0D0E0C801AD
:101960000C2E02C0969587950A94E2F7282F2F70C7
:10197000F22E822F0E94F7080E9497148F2D0E944A
:10198000F7080E94A6152497CC3F8FEFD80739F7A8
:10199000DF91CF911F910F91FF900895DF92EF9209
:1019A000FF920F931F93CF93DF93662309F44AC0EE
:1019B000E42FF0E0AFEFB0E0A61BB109BF01A69F96
:1019C000E001A79FD00DB69FD00D1124FD2FDD2E75
:1019D0007B01ED1AF1080CE310E0B8010E94E52F3D
:1019E000EB01BC01E69EC001E79E900DF69E900DB6
:1019F0001124B8010E94E52FC230D105B1F040F4A6
:101A0000209779F0219709F58F2FD42E461B20C0FF
:101A1000C430D10599F068F02597B9F4842F861B5E
:101A200017C08F2FD62EDF0E13C0862F8F0FD42E08
:101A300003C0D42ED61A842F4F2F0AC0842F462FCE
:101A40004F0F06C0842FD42E03C080E0D12C40E07D
:101A5000E42FF0E0EE55FC4F4491ED2DF0E0EE5513
:101A6000FC4F9491E82FF0E0EE55FC4FE491D90142
:101A700011964C9311979C931296EC93DF91CF9112
:101A80001F910F91FF90EF90DF90089588E090E014
:101A90000C941B30AB01BC0188E090E00C94393011
:101AA00083E080936103109262038FEF809363035E
:101AB000809364036091610370916203809163037A
:101AC000909164030C944A0D6091610360FF06C01D
:101AD00066956F7370E080E090E0089560E070E0DC
:101AE000CB0108958091610380FF06C06FE070E034
:101AF00089E693E00C94D212EBE6F3E0DF01119754
:101B00001C92DF0112971C921082349683E0E73A10
:101B1000F807A1F7EBCFEBE6F3E0DF0111978C9329
:101B2000DF0112976C934083349693E0E73AF9070C
:101B3000A1F70C94720DCF92DF92EF92FF920F9368
:101B40001F93CF93DF9300D000D0CDB7DEB7F82E30
:101B5000C92ED62EE42E00916103109162032091CC
:101B6000630330916403009365031093660320932D
:101B70006703309368038091610380FF1EC09E015C
:101B80002F5F3F4F8F2D0E94CE0C80916503F0FA9E
:101B900087F980936503F6942091660320782F29B6
:101BA000C0FA27F920936603D0926703E092680396
:101BB0004B8169818A810E948B0D0F900F900F904D
:101BC0000F90DF91CF911F910F91FF90EF90DF90D9
:101BD000CF9008958F929F92AF92BF92CF92DF9253
:101BE000EF92FF920F931F93CF93DF93EC01862E1A
:101BF000942E8091610380FF88C0982F9E77923049
:101C000021F4CE010E949B0D56C0E82FE695EF739C
:101C10009EE39E0F9F73943018F4909064034BC022
:101C20009AE39E0F9F73993070F4881F8827881F4E
:101C300090916203292F220FC22FC82B97FB99275F
:101C400090F9D92F38C087E28E0F8F738A3098F5BC
:101C5000F0E07997E0FF02C02FEF01C021E0EE7FB6
:101C6000E857FC4F859194916FE070E00E94E52F5A
:101C700026036001279FD00C11247E0188E9E81A11
:101C80008EEFF80A09E613E088E6A82EBB24B39489
:101C9000C701B5010E94E52F9801492D682D0E94CA
:101CA000CE0CEC0CFD1C0C5F1F4F93E0053A19079E
:101CB00079F70E94720D809161039C2FC0FB87F918
:101CC000809361039695809162038078892BD0FB85
:101CD00087F980936203809263039092640360911A
:101CE0006103709162038091630390916403DF91BB
:101CF000CF911F910F91FF90EF90DF90CF90BF9009
:101D0000AF909F908F900C944A0DDF91CF911F91CF
:101D10000F91FF90EF90DF90CF90BF90AF909F908A
:101D20008F90089520916103221F2227221F309156
:101D30006203432F440F842F822B37FB992790F99E
:101D40000C9668E671E00E94F92F4091640360915F
:101D500063030C94EA0D20916103221F2227221FA6
:101D600030916203432F440F842F822B37FB992736
:101D700090F98C3091051CF4845A9E4F01C00C9749
:101D800068E671E00E94F92F40916403609163035B
:101D90000C94EA0D80916103881F8827881F909119
:101DA0006203292F220F97FB992790F94091640332
:101DB0006FEF822B0C94EA0D80916103881F8827B6
:101DC000881F90916203292F220F97FB992790F982
:101DD0004091640360E0822B0C94EA0D409164030F
:101DE000842F90E0843F910514F4445F01C04FEFCD
:101DF00080916103881F8827881F90916203292F93
:101E0000220F97FB992790F960916303822B0C9422
:101E1000EA0D40916403842F90E00C9714F04C502D
:101E200001C040E080916103881F8827881F90913E
:101E30006203292F220F97FB992790F96091630382
:101E4000822B0C94EA0D9091610390FF44C091782D
:101E5000811102C0926003C0833220F09464909399
:101E6000610305C08F73880F892B80936103609194
:101E700061037091620380916303909164030E94F7
:101E80004A0D80916103982F9E77923019F4109239
:101E90006C0210C0982F96959F732EE3290F2F7315
:101EA000273120F491E090936C0204C0995D9F73F8
:101EB0009A3068F3881F8827881F90916203292F22
:101EC000220F97FB992790F9409164036091630377
:101ED000822B0C94EA0D089580912F0381608093EA
:101EE0002F0381E080936D020E94D91F811104C0ED
:101EF0000E94B81F0E94500D0E94460D609361031E
:101F00007093620380936303909364036E7761F42C
:101F10000E94500D0E94460D60936103709362030E
:101F2000809363039093640381E080936C028091BB
:101F3000610380FF04C086958F730C94230F08956E
:101F40008091610386958F738F5F833208F081E003
:101F50000C94230F80916103982F909590FB80F94A
:101F600080936103609161037091620380916303C8
:101F7000909164030E944A0D8091610380FF04C028
:101F800086958F730C94230F10926C022FEF80E7CD
:101F900092E0215080409040E1F700C000000C9496
:101FA000720DCF93C82F80916A0290916B020E94AC
:101FB0000121EC2FF0E0E256FC4FE491F0E08E17A7
:101FC0009F0708F442C00E94F52090936B02809313
:101FD0006A026091690270E080E090E00E94032E46
:101FE00020E030E04FE753E40E943C2D2BED3FE032
:101FF00049E450E40E94242F0E94872F0E94A92DBB
:102000002BE43AE34EE25FE30E94D72C20EF3BEF54
:1020100048ED52E40E94242F0E94D52D462F809136
:102020006103881F8827881F90916203292F220F40
:1020300097FB992790F960916303822B0E949B0D77
:10204000809169028F5F80936902CF910895CF9349
:10205000C82F80916702909168020E940121EC2FA5
:10206000F0E0E556FC4FE491F0E08E179F07E8F0B2
:102070000E94F52090936802809367024091640368
:102080006091630380916502909166020E949B0DAE
:102090008091650290916602019668E671E00E9467
:1020A000E52F9093660280936502CF910895DF92A9
:1020B000EF92FF920F931F93CF93DF93D82E8091CF
:1020C0006302909164020E940121ED2DE695F0E0FB
:1020D000E856FC4FE491F0E08E179F07E8F10E946C
:1020E000F520909364028093630209E613E0C0E058
:1020F000D0E098E6E92EFF24F3948091610290915C
:1021000062028C0F9D1FB7010E94E52F980140913C
:102110006403609163030E94CE0C68960C5F1F4FAE
:10212000C83681E0D80749F70E94720D20916102FC
:1021300030916202D0FE0AC0C9010196BE010E9420
:10214000E52F909362028093610206C0215031090D
:102150003093620220936102DF91CF911F910F9122
:10216000FF90EF90DF900895AF92BF92CF92DF92F1
:10217000EF92FF920F931F93CF93DF93C82F80FDB1
:1021800003C0BB24B39402C0BB24BA9480915F0205
:10219000909160020E940121C695EC2FF0E0EB5671
:1021A000FC4FE491F0E08E179F0708F466C00E9490
:1021B000F5209093600280935F0249E6E42E43E0AD
:1021C000F42E0BE613E0C0E0D0E0F8013197108266
:1021D000F7011082F801108234E0C32ED12CA12C1B
:1021E00080915E028A0D87FD815F992787FD90951A
:1021F000C817D907E9F4809164038C9DA0018D9DD7
:10220000500D11245595479555954795809161033B
:10221000881F8827881F90916203592F550F97FBBD
:10222000992790F9970160916303852B0E94CE0C4A
:10223000AB0CF1E0CF1AD108C114D10489F6219674
:1022400084E0E80EF11C0C5F1F4FCF30D10509F080
:10225000BCCF0E94720D80915E0291E0B91206C05F
:10226000811102C08EE007C0815005C090E0019648
:10227000BE010E94F92F80935E02DF91CF911F91E2
:102280000F91FF90EF90DF90CF90BF90AF900895A7
:102290000F931F93CF93DF93C82F80915C0290918F
:1022A0005D020E940121EC2FF0E0EE56FC4FE4911C
:1022B000F0E08E179F0708F466C00E94F520909307
:1022C0005D0280935C02EBE6F3E0DF0111971C9264
:1022D000DF0112971C921082349683E0E73AF807E8
:1022E000A1F7C0E0D0E00FE010E0CE01B8010E94FD
:1022F000F92F20915B02332727FD3095880F991F16
:10230000880F991FC217D307FCF0209102013327D1
:1023100027FD30952C173D07BCF09C0127593C4FF9
:1023200080916103881F8827881F90916203592F2D
:10233000550F97FB992790F94091640360916303CF
:10234000852B0E94CE0C06C0FC01E759FC4F118280
:10235000108212822196CF30D10539F60E94720D7B
:102360002091010180915B02820F80935B0290912A
:102370000201920F90930201191614F48E301CF092
:10238000219520930101DF91CF911F910F91089525
:10239000EF92FF920F931F93CF93DF938091590297
:1023A00090915A020E940121883E9340C8F10E94F8
:1023B000F52090935A0280935902C0915702D09110
:1023C00058022196C170DD27D0935802C09357025E
:1023D00009E613E0F12C68E7E62E8F2D8695FE01C5
:1023E000E80FF11DCF018170992798014091640396
:1023F00060916303FC01EE9EC001EF9E900D1124DD
:102400000E94CE0CF3940C5F1F4FFFE0FF12E5CF4C
:10241000DF91CF911F910F91FF90EF900C94720D6F
:10242000DF91CF911F910F91FF90EF9008958091D0
:102430006C02882391F120916103822F86958F731E
:102440009EE3980F9F73943018F482500C94D10F30
:102450009AE3980F9F73933018F486500C942710CA
:1024600097E3980F9F73963018F489500C94571087
:1024700091E3980F9F73963018F48F500C94B4101A
:102480009BE2980F9F73933018F485510C94481178
:102490002E77203311F40C94C8110895882319F075
:1024A0005198599A02C0519A59985098589A95E063
:1024B0009A95F1F70000509A589895E09A95F1F79F
:1024C0000000882311F0519A599885E08A95F1F718
:1024D000000008958BB18C7F8BB95098589A519811
:1024E000599A85E08A95F1F7000008958AB18C7FAA
:1024F0008AB985E08A95F1F70000519A599885E0EC
:102500008A95F1F70000509A589885E08A95F1F77E
:10251000000008955098589A85E08A95F1F70000D8
:102520005198599A85E08A95F1F700000895CF9364
:10253000DF93D82FC8E08D2F80780E944E12DD0FD8
:10254000C150C9F780E00E944E1285E08A95F1F7EC
:10255000000085E08A95F1F7000080E0DF91CF91DF
:1025600008953BB1242F209523233BB1342B4FB743
:10257000F894FC01680F791FE617F70789F081913D
:1025800098E03BB9000000C087FF2BB9880F00001E
:1025900000C000C000C02BB900C09A9591F7ECCFE5
:1025A0004FBF0895AF92BF92CF92DF92EF92FF920A
:1025B0000F931F93CF93DF938C01EB01AFB6B090D5
:1025C000BC00F8948091BC008B7F8093BC000E947B
:1025D0006A120E94761284E80E949712CC0FDD1FC7
:1025E000CC0FDD1F78016E01C00ED11EEC14FD046E
:1025F00031F0F70181917F010E949712F7CF0E947D
:102600008A12AFBEB092BC00579A40E8BE01C80122
:10261000DF91CF911F910F91FF90EF90DF90CF90BE
:10262000BF90AF900C94B11290937302809372029A
:102630000895E0917202F0917302309721F00190B9
:10264000F081E02D099480E00895E0917202F0910C
:102650007302309721F00280F381E02D09940895F0
:10266000E0917202F0917302309721F00480F581BD
:10267000E02D099408952091700230917102821723
:10268000930771F09093710280937002E09172024F
:10269000F0917302309721F00680F781E02D0994C4
:1026A000089520916E0230916F028217930771F0A6
:1026B00090936F0280936E02E0917202F091730228
:1026C000309721F00084F185E02D09940895089554
:1026D0000C94671381E008950E94EC200E94EB03A4
:1026E0000E9473210C946C0FCF92DF92EF92FF92B5
:1026F0000F931F93CF93DF93CDB7DEB72B970FB612
:10270000F894DEBF0FBECDBF0E9458040E946A132A
:10271000811111C08FEF89838A831B820E94F5206B
:102720008160782F9D838C8349815A816B818D8153
:102730000E94581456C035E7E32E32E0F32E00E035
:1027400010E0C02E802F0E943805F701D1907F0144
:10275000D82631F40F5F1F4F0E30110591F7DACFF5
:1027600090912F0391FF04C08B870E943E058B85BB
:1027700020E030E04D2D50E0922FBA01022E02C031
:10278000759567950A94E2F760FF25C02E83CF8286
:10279000EE24E394F12C02C0EE0CFF1C9A95E2F7B4
:1027A00090E08E219F2121E0892B09F420E02887E9
:1027B0000E94F5208160782F9A8789874E815F81FA
:1027C00068858A850E945814F801EB58FD4F808176
:1027D0008E25808306C02F5F3F4F2630310561F67E
:1027E000B9CF0E940523109174020E941913181783
:1027F000A1F00E941913809374022B960FB6F894DF
:10280000DEBF0FBECDBFDF91CF911F910F91FF9023
:10281000EF90DF90CF900C9407092B960FB6F894A9
:10282000DEBF0FBECDBFDF91CF911F910F91FF9003
:10283000EF90DF90CF900895DC0111964C911197A5
:102840005C91852F90E021E030E001C0220F5A9585
:10285000EAF712966C91129750E0662319F0609196
:10286000920205C0FA01ED57FD4F60816223662395
:10287000B9F036E0349FF001359FF00D1124E80FD8
:10288000F91FEE0FFF1FEB5EFE4F808191818D934C
:102890009C93FA01ED57FD4F8081822B8083089530
:1028A000FA01ED57FD4F209580812823208308955C
:1028B000CF93DF93CDB7DEB72B970FB6F894DEBF7B
:1028C0000FBECDBF4F83588769877A878B878A85EC
:1028D0009B85892B31F05F3F11F080E003C04F3FB3
:1028E000E1F781E0811104C0CE0107960E941C141B
:1028F000DE01119686E0FD0111928A95E9F785E0E7
:10290000FE01379601900D928A95E1F749815A812F
:102910006B817C818D819E810E94DC1B2B960FB682
:10292000F894DEBF0FBECDBFDF91CF910895CF9356
:10293000DF931F92CDB7DEB7682F882309F402C159
:102940008238C1F40E94191381FDFCC069E38091B3
:102950000301909104010E945C200E94F91E2FEF58
:1029600081EE94E0215080409040E1F700C00000EB
:1029700069E319C0833811F50E94191380FDE2C084
:1029800063E580910301909104010E945C200E9404
:10299000F91EEFEFF1EE24E0E150F0402040E1F7C6
:1029A00000C0000063E580910301909104010E9442
:1029B00067200F90DF91CF910C94F91E8438C1F4F9
:1029C0000E94191382FDBEC067E4809103019091BB
:1029D00004010E945C200E94F91E8FEF91EEE4E05A
:1029E00081509040E040E1F700C0000067E4DBCF99
:1029F0008CEF860F813A70F4862F69830E9424251C
:102A0000698181119FC080910301909104010E940E
:102A10005C20CFCF80E2860F883048F4677081E079
:102A200001C0880F6A95EAF70E942F1FC2CF8BE57D
:102A3000860F833088F4653A29F0663A31F482E8EB
:102A400090E005C081E890E002C083E890E00F903C
:102A5000DF91CF910C943B1388E5860F853108F008
:102A600071C0683A61F1693A69F16A3A71F16B3A99
:102A700079F16C3A81F16B3B89F16C3B91F16D3AE4
:102A800099F1603BA1F16E3AA9F16F3AB1F1613B66
:102A9000B9F1623BC1F1633BC9F1643BD1F1653BE4
:102AA000D9F1663BE1F1673BE9F1683BF1F1693B44
:102AB000F9F16A3B09F03FC08AE292E03EC082EE43
:102AC00090E03BC089EE90E038C08AEE90E035C0DF
:102AD00085EB90E032C086EB90E02FC083EB90E076
:102AE0002CC084EB90E029C087EB90E026C08CECF2
:102AF00090E023C08DEC90E020C083E891E01DC001
:102B00008AE891E01AC082E991E017C084E991E077
:102B100014C081E292E011C083E292E00EC084E230
:102B200092E00BC085E292E008C086E292E005C028
:102B300087E292E002C080E090E00F90DF91CF91B9
:102B40000C9451130F90DF91CF910895882309F4CD
:102B50005DC0823879F40E94191381FF57C069E380
:102B600080910301909104010E945C200E94F91E53
:102B700069E310C08338B1F40E94191380FF46C086
:102B800063E580910301909104010E945C200E9402
:102B9000F91E63E580910301909104010E94672072
:102BA0000C94F91E843879F40E94191382FF2EC008
:102BB00067E480910301909104010E945C200E94CF
:102BC000F91E67E4E7CF9CEF980F913A10F4682F55
:102BD000E1CF90E2980F983050F4877091E001C0F7
:102BE000990F8A95EAF7892F0E94351FD9CF9BE567
:102BF000980F933020F480E090E00C943B13885AB7
:102C0000853120F480E090E00C94511308958823DE
:102C100021F00E942F1F0C94F91E0895882321F0A3
:102C20000E94351F0C94F91E08958F929F92BF92B7
:102C3000CF92DF92EF92FF920F931F93CF93DF9388
:102C400000D0CDB7DEB74C01472FFC01C580C29440
:102C50002FE0C222D280DD2031F079836A830E9486
:102C60004C1F6A81498149836A830E94F21E49810F
:102C70006A81882389F0DD2079F080E2860F883030
:102C800058F082E00E94DB1E0E94F21EBB24B39427
:102C9000B82649816A8101C0B12CE42EE2949FE0FC
:102CA000E922F12CF701E859FF4F0C940D30842FE5
:102CB000807F142F1F70882311F01295107FDD2064
:102CC000C1F0112309F4D3C180E2860F883010F0DF
:102CD000611105C0812F6A830E942F1F04C0812FBC
:102CE0006A830E943F1F6A816A830E94F91E6A817B
:102CF000BEC1862F6A830E94A6156A81112309F43A
:102D00000FC280E2860F883010F0611104C0812F5D
:102D10000E94351F03C0812F0E94451F0E94F91E8B
:102D2000FFC1242F207F842F8F70203211F08295D5
:102D3000807F662319F06130B9F020C0DD2049F0B2
:102D4000CC2009F44AC1F1E0CF1247C10E945F1FB5
:102D5000E7C1CC2021F021E0C21609F4E1C189834A
:102D60000E94621F89813FC1DD2029F091E09C15FE
:102D700008F4D6C132C1C110D3C135C1DD2021F064
:102D8000CC2009F42AC173C1CC2009F42CC180C124
:102D9000242F26952695237030E02115310521F04A
:102DA0002130310561F0BCC1DD2021F0862F942F48
:102DB000937002C080E090E00E943B13C1C1DD200F
:102DC00021F0862F942F937002C080E090E00E9443
:102DD0005113B6C1DD20F9F0653F51F0663F71F047
:102DE000643FA9F48091A5039091A60381600BC074
:102DF0008091A5039091A603826005C08091A503F0
:102E00009091A60384609093A6038093A503862FD8
:102E10000E940D2222C0653F51F0663F91F0643F51
:102E2000C9F48091A5039091A6038E7F05C080917F
:102E3000A5039091A6038D7F9093A6038093A5038D
:102E400009C02091A5033091A6032B7F3093A603E0
:102E50002093A503862F0E9475220E94FA2270C13A
:102E6000842F837009F04EC0D11066C1262F2295A1
:102E700026952770220F220F862F8F70C82ED12CF7
:102E8000E12CF12C022E04C0CC0CDD1CEE1CFF1C2E
:102E90000A94D2F764FF10C06FE070E080E090E029
:102EA00004C0660F771F881F991F2A95D2F7609577
:102EB00070958095909503C060E070E0CB01242F61
:102EC00026952695237030E02230310569F02330B5
:102ED000310589F06C297D298E299F292130310502
:102EE00071F00E942D1D28C16C297D298E299F29F2
:102EF0000E943F1D21C10E942D1DC701B6010E94E5
:102F00001B1D1AC1DD2019F0842F817001C0869528
:102F1000882309F411C1262F229526952770220FA8
:102F2000220F862F8F70C82ED12CE12CF12C022E6F
:102F300004C0CC0CDD1CEE1CFF1C0A94D2F764FF0D
:102F400010C06FE070E080E090E004C0660F771F73
:102F5000881F991F2A95D2F7609570958095909556
:102F600003C060E070E0CB01242F269526952370E6
:102F700030E02230310569F02330310589F06C29C9
:102F80007D298E299F292130310571F00E94D91D9C
:102F9000D3C06C297D298E299F290E94EB1DCCC0AE
:102FA0000E94D91DC701B6010E94C71DC5C0062FCA
:102FB00010E0F801E05EF109E531F10508F053C0D9
:102FC000E858FF4F0C940D30162F1F70842F8F710F
:102FD000DD2031F00E94721D812F0E940716A0C0D3
:102FE0000E948D1D812F0E940E169AC0DD2039F09F
:102FF000C11096C0842F8F710E94AC1D91C0E1E07A
:10300000EC1508F48DC0F6CFDD2039F0842F8F71D8
:103010000E94721D85C0DD20C9F3842F8F710E942C
:103020008D1D7EC0DD2029F0842F8F710E94631DCD
:1030300077C00E945E1D74C0DD2051F0142F1F71F7
:10304000812F0E94721D63E0812F0E94D21E68C0F2
:1030500081E00E94DB1EF1E0FC1508F061C082E017
:103060000E94DB1E5DC0DD2031F0CC2079F2862F7E
:103070000E94971455C0CC2081F2693349F42FEF98
:1030800087EE93E0215080409040E1F700C00000BF
:10309000862F0E94A61544C04F70C4010E94FD05F2
:1030A0000E94891C4DC0623FA9F128F4603F49F09D
:1030B000613FE1F020C0643FA1F050F0653F69F04E
:1030C0001AC0DD2049F18091920221E0822702C0DE
:1030D00081E08D25809392021FC0D1101DC081E038
:1030E000F9CFD11019C01092920216C0CC2091F0E5
:1030F000D11012C0E8CFCC2069F0862F49836A83B3
:10310000DD2019F00E94971402C00E94A615498183
:103110006A8102C0D09292024F70C4010E94FC05E5
:10312000E8E0EE16F10441F05CF02AE0E21AF10862
:1031300082E0E816F10420F40E9419130E940709A6
:10314000BB20F1F00E94CE1E80FD1AC0F401128255
:103150000E94C81E0E94721DC4010E94CE180E94C7
:10316000C81E0F900F90DF91CF911F910F91FF908C
:10317000EF90DF90CF90BF909F908F900C948D1D1B
:103180000F900F90DF91CF911F910F91FF90EF90D3
:10319000DF90CF90BF909F908F9008950F931F93D3
:1031A000CF93DF93EC01288139818B819C81892B1E
:1031B00031F03F3F11F080E003C02F3FE1F781E0A5
:1031C000811113C0CE010E944006882371F06881EE
:1031D00079818A810E94A51E8C010E94FD1D0E949A
:1031E000181DB801CE010E941516DF91CF911F91D5
:1031F0000F9108950E944C1F0E945C1F8091030153
:10320000909104010E9472200E94F91E0E948E2358
:103210000E94FA2280E090E00E943B1380E090E060
:103220000C9451130E943C1F0C94FA180E949A1E91
:10323000E92FE295EF70F0E03297EE30F105B8F447
:10324000E357FF4F0C940D30803F59F018F4803E47
:1032500070F407C0843F59F404C0803E10F0813FF1
:1032600031F481E0089593FB882780F9089580E088
:103270000895CF93DF9300D000D01F92CDB7DEB773
:103280000F900F900F900F900F90DF91CF910895B6
:10329000CF93DF9300D000D000D0CDB7DEB7269615
:1032A0000FB6F894DEBF0FBECDBFDF91CF9108956A
:1032B0001F93CF93DF93C091930216E08091940205
:1032C000C81799F0D0E01C9FF0011D9FF00D11244C
:1032D000EB56FD4F408151816281738184819581DC
:1032E0000E9448192196C770E9CFDF91CF911F91B5
:1032F00008954091C5025091C6026091C702709135
:10330000C8028091C9029091CA020C944819CF93C7
:103310008091CA0282958F7009F05FC08091C702C8
:10332000882309F45AC020919302A09194026091DD
:10333000C5027091C6028091C8029091C90231E025
:103340006F3F09F030E0B32FC6E02A1709F445C0FB
:10335000009721F07F3F21F44B2F03C041E001C0D3
:1033600040E030E040FD35C0C29FF001C39FF00D4A
:103370001124EB56FD4F418174132BC0408164131F
:1033800028C04281411125C0438154814817590703
:1033900010F441505109481B590B483C5105C8F4E1
:1033A0008091CA028F7080618093CA0286E0829FFA
:1033B000F001839FF00D1124E656FD4F80818F7040
:1033C0008061808385EC92E00E94CE18CF910C94AE
:1033D00058192F5F3F4F2770B8CFCF910895CF92E4
:1033E000DF92EF92FF920F931F93CF93DF93CDB7AE
:1033F000DEB762970FB6F894DEBF0FBECDBF8C016B
:1034000085E0F801DE011D9601900D928A95E1F7A5
:10341000D8014C9111965C91119712966C9112976C
:103420001396ED90FC9014977091C502E091C6023E
:103430002091C8023091C9022115310531F0EF3FCA
:1034400031F481E07F3F19F403C081E001C080E0E6
:10345000B82FB170CB2E80FD6CC1D090C702DD209B
:1034600009F4F5C0F091CA02E216F30638F0C7017C
:10347000821B930B883C910548F09BC020953095AA
:103480002E0D3F1D283C310508F093C08F2F807F03
:1034900009F052C0E51314C0741312C0D62E611186
:1034A0000FC0FF70F061F093CA020E94791985EC99
:1034B00092E00E94CE188091CA02F80185836CC107
:1034C000EF2831F05F3F31F481E04F3F19F403C042
:1034D00081E001C080E080FD03C081E0862701C05B
:1034E00080E0F82FF170FF2E80FF1CC080919302C6
:1034F0002091940236E0821709F428C190E0389FA9
:10350000F001399FF00D1124EB56FD4F71815713D7
:1035100006C07081471303C07281671303C0019610
:103520008770E9CFD62E662309F436C18091CA028E
:1035300081608093CA0253C0E51308C0741306C0AB
:10354000611104C0D8011596FC93AEC04D875E870B
:103550008D859E856A8B0E9416196A89882329F1B8
:10356000D62E662311F12091CA02822F82958F7088
:1035700090E002970CF460C08091C5029091C60261
:1035800098878F831986FB86EA862C87CE0107965B
:1035900051C0E51731F14D875E878D859E856A8B19
:1035A0000E9416196A8981112EC0C8010E94CE1886
:1035B000A4C08F2F807F69F77E2DF98AE88A8989D8
:1035C0000E94391985EC92E00E94CE18E5ECF2E0F9
:1035D00086E0DF011D928A95E9F70E947919D12CC6
:1035E000DBC07413D8CF6111D6CFD8011596FC93E8
:1035F000C8010E94CE18E5ECF2E086E0DF011D92E2
:103600008A95E9F7C9C0D62E662379F22091CA02BD
:10361000822F82958F7090E0029774F08091C5029E
:103620009091C6029A8389831B82FD82EC822E834D
:10363000CE0101960E94CE1886E0F801A5ECB2E01A
:1036400001900D928A95E1F70E9487196FC0E216EA
:10365000F30628F0C701821B930B9C0104C0209540
:1036600030952E0D3F1D283C310508F052C0D62E56
:10367000662309F49ACFE5132CC074132AC08091F5
:10368000CA0280FD1DC0982F92959F70C9F0D80185
:1036900015968C9315979F3039F09F5F9295907F88
:1036A0008F70892B15968C93C8010E94CE1886E0E6
:1036B000F801A5ECB2E001900D928A95E1F736C0D1
:1036C00086E0F801A5ECB2E001900D928A95E1F751
:1036D00063C04D875E878D859E850E94161988235D
:1036E00079F086E0F801A5ECB2E001900D928A95A0
:1036F000E1F70E9487190E947919DD24D3944CC008
:103700008091CA0281608093CA02C8010E94CE18CB
:1037100043C07E2DF98AE88A89890E943919E5EC2F
:10372000F2E086E0DF011D928A95E9F70E9479199F
:1037300033C0662309F439CF4D875E878D859E851A
:103740000E941619882309F430CFCBCF4D875E87AE
:103750008D859E850E949A1E292F22952F7030E01C
:10376000223031052CF49F7041F0811106C00CC04D
:10377000243031052CF49F7049F4805E883020F0AD
:10378000C8010E94CE18CF2CDC2C06C0D80115969B
:103790009C91907F91F7F8CF8D2D62960FB6F8949B
:1037A000DEBF0FBECDBFDF91CF911F910F91FF9074
:1037B000EF90DF90CF9008951F93CF93DF93CDB715
:1037C000DEB72C970FB6F894DEBF0FBECDBF4F8388
:1037D000588769877A878B879C87CE0107960E94D6
:1037E000EF198823C1F02F8138858A859B85892B25
:1037F00031F03F3F11F080E003C02F3FE1F781E05F
:10380000811147C04F81588569857A858B859C8554
:103810000E9448193EC086E0FE013796DE011196EF
:1038200001900D928A95E1F7FF81E8854A855B85D5
:103830004115510531F0EF3F31F481E0FF3F19F4BC
:1038400003C081E001C080E080FD23C0209194028C
:1038500030E0C9010196877099276091930270E06A
:1038600086179707F1F1F983EA835D834C8396E02D
:10387000929FD001939FB00D1124AB56BD4FFE0116
:10388000319601900D929A95E1F7809394020E94EF
:10389000581916E08091930290919402891779F15A
:1038A000189FC00111248B569D4F0E94EF19882349
:1038B00031F1E09193021E9FF0011124EB56FD4F70
:1038C0004081518162817381848195810E94481970
:1038D0008091930290E001968770992780939302DC
:1038E000D9CF0E9412191092940210929302E5EC23
:1038F000F2E086E0DF011D928A95E9F7CACF2C96A7
:103900000FB6F894DEBF0FBECDBFDF91CF911F91F0
:103910000895EF92FF920F931F93CF93DF939C0133
:10392000009709F471C0F12CEE24E394E90121968B
:10393000F9018491843740F4843008F056C0813016
:1039400081F0823021F160C0853709F449C0C0F1AF
:103950009CE7980F903708F057C08F770E94A61504
:1039600046C089010E5F1F4FFE01849190E2980FBF
:10397000983050F48770FE2D01C0FF0F8A95EAF74A
:103980008F2F0E944F1F15C00E94971414C08901E9
:103990000E5F1F4FFE01849190E2980F983068F4FB
:1039A0008770FE2D01C0FF0F8A95EAF78F2F0E94C6
:1039B000551F0E94F91EE8011AC00E94A615FBCFF0
:1039C0002E5F3F4FFE01C491CC2341F08FE99FE071
:1039D0000197F1F700C00000C150F6CFE90107C020
:1039E000FE01F490E901229602C00E9497148F2DE7
:1039F000882341F0EFE9FFE03197F1F700C00000C4
:103A00008150F6CF9E0192CFDF91CF911F910F9100
:103A1000FF90EF90089508950E940B1D6093060398
:103A20007093070380930803909309030C94FA188A
:103A300008950C940C1D0F931F9300910603109191
:103A400007032091080330910903602B712B822B0F
:103A5000932B1F910F910C940C1D0F931F930091AA
:103A60000603109107032091080330910903602396
:103A70007123822393231F910F910C940C1D0F939C
:103A80001F930091060310910703209108033091C2
:103A9000090360277127822793271F910F910C94A8
:103AA0000C1D08950E94511D60930203709303033F
:103AB00080930403909305030C94FA1860E070E07F
:103AC000CB010C94521D41E050E060E070E004C076
:103AD000440F551F661F771F8A95D2F7CB01BA0195
:103AE0000C94521D41E050E060E070E004C0440FCF
:103AF000551F661F771F8A95D2F780910203909118
:103B00000303A0910403B0910503482B592B6A2BA2
:103B10007B2BCB01BA010C94521D41E050E060E0D8
:103B200070E004C0440F551F661F771F8A95D2F7B7
:103B30004095509560957095809102039091030394
:103B4000A0910403B0910503482359236A237B23E2
:103B5000CB01BA010C94521D41E050E060E070E0EE
:103B600004C0440F551F661F771F8A95D2F78091B6
:103B7000020390910303A0910403B0910503482729
:103B800059276A277B27CB01BA010C94521D0F934A
:103B90001F930091020310910303209104033091BD
:103BA0000503602B712B822B932B1F910F910C948B
:103BB000521D0F931F930091020310910303209154
:103BC00004033091050360237123822393231F9103
:103BD0000F910C94521D0F931F93009102031091AB
:103BE0000303209104033091050360277127822786
:103BF00093271F910F910C94521D0895292F220F86
:103C0000290F220F280F422F46954695469527707B
:103C1000B1E001C0BB0F2A95EAF785E0489FA001FB
:103C2000112445535D4F80E090E070E0FA01E80F09
:103C3000F91FA0819B01082E02C0369527950A9492
:103C4000E2F72170332721952A272B232A27208367
:103C500001968530910551F70895292F220F290FDC
:103C6000220F280F622F669566956695922F9770A2
:103C700085E0689FB001112465537D4F40E050E01E
:103C800080E0FB01E40FF51F208130E0092E02C027
:103C9000369527950A94E2F721703327042E01C048
:103CA000220F0A94EAF7822B4F5F5F4F4530510590
:103CB00041F70895CF92DF92EF92FF920F931F93F7
:103CC000CF93DF93EC01C0900603D0900703E09000
:103CD0000803F09009038091020390910303A091DF
:103CE0000403B0910503C82AD92AEA2AFB2A0FE166
:103CF00010E0B701A601002E04C076956795579590
:103D000047950A94D2F740FD05C00150110988F784
:103D100080E007C0BE01802F0E9423090197A9F30C
:103D2000802FDF91CF911F910F91FF90EF90DF9047
:103D3000CF900895CF93DF93EC010E945A1EBE01ED
:103D40000E942309DF91CF9108951F93CF93DF93B2
:103D5000EB0190919102992321F0CB010E949A1ED0
:103D600013C0882349F0CB010E945A1E182F682FD8
:103D7000CE010E94FE1D04C0CB010E942D1E182FF3
:103D8000BE01812F0E942309DF91CF911F910895D9
:103D900080910A03859585958595089580910A03FC
:103DA0008770089598E0899F90011124622B609399
:103DB0000A030C94721D40910A038095842380931A
:103DC0000A03982F977069F450E0282F332727FDB6
:103DD00030954217530729F08595859585950C9464
:103DE0008D1D089590910A03977081E009F480E099
:103DF0000895E0910301F091040180912E038083E6
:103E0000E0910301F0910401808190912D03892BB1
:103E10008083E0910301F0910401808190912C0353
:103E2000892B808390910B03992381F0E09103010A
:103E3000F09104018081892B80838091030190910E
:103E400004010E94F51F811110920B038091030160
:103E5000909104010C94251380912E030895909164
:103E60002E03982B90932E030895809590912E0306
:103E7000982390932E03089510922E030895909105
:103E80002D03982B90932D030895809590912D03E9
:103E9000982390932D03089510922D0308959091E7
:103EA0002C03982B90932C030895809590912C03CC
:103EB000982390932C03089510922C0308958093D7
:103EC0000B03089510920B030895CF92DF92EF92A7
:103ED000FF920F931F936C01EE24FF24C114D104B1
:103EE000E104F10421F46B017C0180E001C080E178
:103EF00033272F2D1E2D0D2D0115110521053105FF
:103F000019F0885F6801790197018601A4E0369570
:103F1000279517950795AA95D1F701151105210544
:103F2000310519F08C5F6801790197018601F2E093
:103F30003695279517950795FA95D1F7011511052F
:103F40002105310519F08E5F68017901B701A601DD
:103F50007695679557954795452B462B472B09F046
:103F60008F5F1F910F91FF90EF90DF90CF9008959A
:103F70006DEE7EEF80E090E00E94453060E082E0F0
:103F800090E00E94273060E083E090E00E942730BC
:103F900060E084E090E00E94273060E085E090E0FF
:103FA0000E94273040E050E0BA0188E090E00C9495
:103FB000393080E090E00E94213021E08D3E9E4F1C
:103FC00009F020E0822F089582E090E00C941330F5
:103FD00083E090E00C94133084E090E00C94133074
:103FE000682F84E090E00C94273020E030E040E03F
:103FF000FC01E20FF31F518151114F5F2F5F3F4FC3
:104000002F313105A9F7842F089520E030E04FEFDC
:10401000FC01E20FF31F5281561799F04F3F19F43C
:10402000511101C0422F2F5F3F4F2E31310581F7D3
:104030004F3F39F0FC01E40FF11D47FDFA95628313
:104040000895089520E030E0FC01E20FF31F428163
:10405000461301C012822F5F3F4F2E313105A1F769
:104060000895262F2695269526952F3170F4FC016C
:10407000E20FF11D677021E030E0062E01C0220F33
:104080000A94EAF78181822B81830895262F269551
:10409000269526952F3178F4FC01E20FF11D67700B
:1040A00021E030E0062E01C0220F0A94EAF72095A5
:1040B000818128232183089520911401222329F04E
:1040C0002091AB0327FD0C9431200C940520209106
:1040D0001401222329F02091AB0327FD0C944620E4
:1040E0000C94222020E030E0FC01E20FF31F11824B
:1040F0002F5F3F4F2F313105B9F708958091B103FC
:10410000843021F11092300320E488E190E00FB672
:10411000F894A895809360000FBE2093600080E023
:104120000E94070983B7817F846083BF83B7816062
:1041300083BF7894889583B78E7F83BF88E10FB65D
:10414000F89480936000109260000FBE0895089567
:10415000CF930E940A040E9458040E94A720C0E046
:104160008C2F0E943805811105C0CF5FCE30C1F77A
:1041700080E001C081E0CF9108950E9412190E9451
:1041800019130C9407091F920F920FB60F92112466
:104190008F939F93AF93BF9380913003811113C08E
:1041A0008091A7039091A803A091A903B091AA03BD
:1041B0004196A11DB11D8093A7039093A803A093DE
:1041C000A903B093AA03BF91AF919F918F910F90D4
:1041D0000FBE0F901F90189582E084BD93E095BDAF
:1041E0009AEF97BD80936E0008952FB7F894809151
:1041F000A7039091A803A091A903B091AA032FBF90
:104200000895CF92DF92EF92FF920F931F932FB7F3
:10421000F8944091A7035091A8036091A90370916D
:10422000AA032FBF6A017B01EE24FF248C0120E04A
:1042300030E0C016D106E206F30610F441505109F1
:10424000481B590BCA011F910F91FF90EF90DF900F
:10425000CF90089578941F920F920FB60F92112469
:104260008F939F93AF93BF938091A7039091A803DF
:10427000A091A903B091AA030196A11DB11D80933D
:10428000A7039093A803A093A903B093AA03BF9197
:10429000AF919F918F910F900FBE0F901F90189527
:1042A0000E94DA29F8942FEF87EA91E621508040A6
:1042B0009040E1F700C0000087E090EBDC018093C4
:1042C000BA039093BB03A093BC03B093BD032CE04F
:1042D00088E190E00FB6F894A895809360000FBE37
:1042E00020936000FFCF0E94D91F811102C00E945D
:1042F000B81F0E94E41F80932F030E94EC1F90E0E0
:104300009093AC038093AB030E94E81F682F70E08A
:1043100080E090E00C94191D8091340380FF0BC065
:104320006091080185E0689FB0011124759567953B
:10433000759567952AC081FF09C06091080185E0E5
:10434000689FB0011124759567951FC082FF07C053
:104350006091080185E0689FB001112416C040916A
:1043600035034423C9F060910701461788F720916F
:10437000080185E0289F90011124429FC001439FBE
:10438000900D112470E00E94F92F6038710540F4FF
:104390006115710539F002C065E070E0862F08955F
:1043A0008FE7089581E008958091340380FF08C06D
:1043B0006091060170E0759567957595679521C0C8
:1043C00081FF06C06091060170E07595679519C080
:1043D00082FF04C06091060170E010C08091350337
:1043E0008823C1F0609105018617A0F7909106011E
:1043F000989FC001112470E00E94F92F6038710568
:1044000028F46115710521F0862F08958FE708952E
:1044100081E0089561E070E0F4CF803F21F40E94D4
:104420008C21819504C0813F29F40E948C218093C6
:1044300038030895823F21F40E948C21819504C0A5
:10444000833F29F40E948C21809337030895893F8C
:1044500019F40E94D42105C08A3F31F40E94D4216E
:1044600081958093390308958B3F21F40E94D421D4
:10447000819504C08C3F29F40E94D42180933A0393
:104480000895843F21F480913603816017C0853FF1
:1044900021F480913603826011C0863F21F480911F
:1044A000360384600BC0873F21F480913603886017
:1044B00005C0883F31F480913603806180933603D4
:1044C00008958D3F21F48091340381600BC08E3FAD
:1044D00021F480913403826005C08F3F29F48091DC
:1044E00034038460809334030895803F39F48091CD
:1044F000380387FF6CC01092380369C0813F29F4EC
:10450000809138031816BCF362C090913703823F44
:1045100029F497FF5CC01092370359C0833F19F408
:104520001916CCF354C0893F41F480913903181611
:104530000CF04DC0109239034AC08A3F29F4809193
:10454000390387FF44C0F6CF8B3F39F480913A039B
:1045500087FF3DC010923A033AC08C3F29F4809106
:104560003A031816BCF333C0843F21F4809136031C
:104570008E7F17C0853F21F4809136038D7F11C057
:10458000863F21F4809136038B7F0BC0873F21F457
:1045900080913603877F05C0883F31F480913603D0
:1045A0008F7E8093360313C08D3F21F480913403B6
:1045B0008E7F0BC08E3F21F4809134038D7F05C028
:1045C0008F3F29F4809134038B7F80933403809153
:1045D000370381110EC08091380381110AC0809188
:1045E0003903811106C080913A03811102C01092F3
:1045F0003503089586E393E00E9430130E94F5206E
:10460000909332038093310308951F93CF93DF93E8
:1046100080913103909132030E9401214091350332
:10462000442321F02091090130E006C0209133039A
:104630005AE0259F900111248217930708F46AC05D
:104640008091370310913803D0913903C0913A0318
:10465000811107C0111105C0D11103C0CC2309F489
:1046600059C04F3F19F04F5F40933503181624F49B
:104670000E948C21809337038091370387FF05C008
:104680000E948C21819580933703111624F40E9497
:104690008C21809338038091380387FF05C00E94E6
:1046A0008C2181958093380320913703222379F060
:1046B00040913803442359F055EB25039001112410
:1046C000309337034503C0011124909338031D161E
:1046D00024F40E94D421809339038091390387FF09
:1046E00005C00E94D4218195809339031C1624F4BF
:1046F0000E94D42180933A0380913A0387FF05C03A
:104700000E94D421819580933A03DF91CF911F912C
:104710000C94FA22DF91CF911F910895E6E3F3E024
:1047200085E0DF011D928A95E9F71092350310921A
:1047300034030895833081F128F4813059F08230B8
:10474000D1F00895853009F449C0B8F1863009F4F4
:1047500056C0089520913303862F90E0820F911D5B
:104760008F3F910520F4620F6093330308958FEF1C
:1047700080933303089520910901862F90E0820FE2
:10478000911D8F3F910520F4620F609309010895F8
:104790008FEF80930901089520910801862F90E002
:1047A000820F911D8F3F910520F4620F60930801E5
:1047B00008958FEF80930801089520910701862FB7
:1047C00090E0820F911D8F3F910520F4620F60935E
:1047D000070108958FEF8093070108952091060146
:1047E000862F90E0820F911D8F3F910520F4620F7C
:1047F0006093060108958FEF80930601089520913C
:104800000501862F90E0820F911D8F3F910520F4C6
:10481000620F6093050108958FEF8093050108955D
:10482000833011F128F4813049F0823091F00895FD
:10483000853081F120F18630C1F1089580913303F4
:10484000681720F4861B8093330308951092330376
:10485000089580910901681720F4861B809309014F
:10486000089510920901089580910801681720F4B5
:10487000861B809308010895109208010895809185
:104880000701681720F4861B809307010895109292
:104890000701089580910601681720F4861B809314
:1048A0000601089510920601089580910501681788
:1048B00020F4861B80930501089510920501089548
:1048C000873220F58E3108F098C0803109F474C029
:1048D00070F4873009F44CC018F4863089F12EC08A
:1048E0008B3009F4A0C08E3009F45CC027C086313B
:1048F00009F499C020F4813109F46FC01FC08931D7
:1049000009F491C08B3109F443C018C0883309F40D
:104910008AC050F4893209F47EC0853309F47BC023
:10492000873209F478C00AC0833409F474C020F4D3
:104930008A3308F060C002C0883461F080E00895D6
:1049400080912F03817F8E7F80932F0381E080935E
:104950003C0308950E9412192FEF83ED90E321503C
:1049600080409040E1F700C000000E9450215BC0F1
:1049700090912F03892F8095817080FB90F99093FF
:104980002F03811150C0997F977F90932F034BC0C5
:1049900090912F0391FB882780F921E0822780FBEB
:1049A00091F913C090912F0392FB882780F921E0A1
:1049B000822780FB92F909C090912F0393FB8827EF
:1049C00080F921E0822780FB93F990932F038823BD
:1049D00051F1916090932F0308950E9412199091C4
:1049E000AB0397FB882780F921E0822780FB97F9AA
:1049F0009093AB0318C027EC01C023EE280F61E0B1
:104A000070E080E090E004C0660F771F881F991F58
:104A10002A95D2F704C061E070E080E090E00E9447
:104A2000191D0E94121981E0089580E0089580E028
:104A300008958E518A3030F4E82FF0E0E354FE4FB1
:104A40008081089580E00895CF93C82F80913C0322
:104A5000813079F018F08230D1F182C0E091030109
:104A6000F09104018081813169F0823209F07AC0CD
:104A700009C0E0910301F09104018081813111F0BE
:104A8000823249F48C2F0E94152581111DC08C2F74
:104A90000E9460241AC08C2F0E941725811114C017
:104AA000C43179F048F4CB3079F0C03109F05EC000
:104AB00082E080933C0308C0C93219F0C83321F06A
:104AC00055C010923C0352C081E0817051C0C93280
:104AD00079F108F5C43161F1A0F4C73009F044C0A0
:104AE0001092330384E180930901C09308018CE3A1
:104AF0008093070188E08093060188E28093050196
:104B000033C082EE8C0F863078F58C2F0E941925E9
:104B100080933B0329C0CE34E9F020F4CB3421F557
:104B20006AE013C0C13579F0C235F1F461E00DC01F
:104B300080913B03882319F010923B0315C081E05C
:104B400080933C0315C061E006C080913B030E9446
:104B50009A230AC06AE080913B030E94102404C09B
:104B600010923C0380E004C081E002C080E0ADCF41
:104B7000CF91089580915D0308950F931F93CF9374
:104B8000DF9300D01F92CDB7DEB78C010E942B2897
:104B9000823011F0843019F583E089831B830A8306
:104BA0008093E9008FEF9091E800815095FD06C059
:104BB00095ED9A95F1F700008111F5CF8091E8000D
:104BC00085FF0DC040E050E063E070E0CE0101964B
:104BD0000E9448288091E8008E778093E8000F902B
:104BE0000F900F90DF91CF911F910F910895CF9368
:104BF000DF9300D01F92CDB7DEB72091B1032430F0
:104C000031F522E02983805891099B838A8383E0D0
:104C10008093E9008FEF9091E800815095FD06C0E8
:104C200095ED9A95F1F700008111F5CF8091E8009C
:104C300085FF0DC040E050E063E070E0CE010196DA
:104C40000E9448288091E8008E778093E8000F90BA
:104C50000F900F90DF91CF910895CF93DF93EC01E8
:104C60000E942B28823011F08430F9F482E0809386
:104C7000E9008FEF9091E800815095FD06C095ED19
:104C80009A95F1F700008111F5CF8091E80085FF3A
:104C90000CC040E050E065E070E0CE010E94482882
:104CA0008091E8008E778093E800DF91CF9108959E
:104CB000CF93DF93EC010E942B28823019F08430CF
:104CC00009F047C0809114018823E1F08091AB0383
:104CD00087FF18C084E08093E9008FEF9091E8008F
:104CE000815095FD06C095E19A95F1F7000081117C
:104CF000F5CF8091E80085FF2CC040E050E060E2F5
:104D000070E017C081E08093E9008FEF9091E80098
:104D1000815095FD06C095ED9A95F1F7000081113F
:104D2000F5CF8091E80085FF14C040E050E068E0D6
:104D300070E0CE010E9448288091E8008E77809331
:104D4000E80080E2FE01ADE3B3E001900D928A95A8
:104D5000E1F7DF91CF9108958091B003811109C0EF
:104D60000E94DA290E94372A8091E20084608093B1
:104D7000E20008951092B0030895089508950C94E8
:104D8000BD2042E061EC81E00E94542942E061ECE8
:104D900082E00E94542942E061EC83E00E945429A1
:104DA00042E261EC84E00C9454298091B303833097
:104DB00009F455C030F4813071F0823009F48EC0AE
:104DC00008958A3009F47AC08B3009F460C08930C4
:104DD00009F09CC020C08091B203813A09F096C0CE
:104DE0008091E800877F8093E8008091B6039091DE
:104DF000B703892B21F060E080E090E003C060E21F
:104E00008DE393E070E00E9491288091E8008B7719
:104E10008093E80008958091B203813209F076C052
:104E20008091B6039091B703009719F0039709F0AA
:104E30006DC08091E800877F8093E8008091E80052
:104E400082FD05C08091B1038111F8CF5FC08091D0
:104E5000F10080935D038091E8008B7753C08091CF
:104E6000B203813A09F052C08091B6039091B70322
:104E7000892B09F04BC08091E800877F8093E80080
:104E80008091E80080FFFCCF8091140136C08091B2
:104E9000B2038132D9F58091B6039091B703892B83
:104EA000A9F58091E800877F8093E8000E94892916
:104EB0008091B403809314010C9412198091B20371
:104EC000813221F58091E800877F8093E8000E947D
:104ED00089298091B50380935E0308958091B20380
:104EE000813AA1F48091E800877F8093E800809167
:104EF000E80080FFFCCF80915E038093F1008091F9
:104F0000E8008E778093E8000C948929089584B78F
:104F1000877F84BF88E10FB6F89480936000109279
:104F200060000FBE80E880936100109261000E94D3
:104F300068130E94DA290E94372A8091E200846077
:104F40008093E20078940E94BA2C0E946C138AE04D
:104F500091E00E9414138091B103853069F40E949E
:104F60007E208091AF038823B1F30E94A82088237C
:104F700091F30E943228EFCF0E9474130E941712FF
:104F8000EACF292F332723303105A9F06CF42130E3
:104F9000310509F442C02230310509F043C08DE6E5
:104FA00090E026ED34E042C021323105C9F02232D2
:104FB000310519F137C099278130910541F08230D0
:104FC000910541F0892B71F5E2EDF4E005C0EAEBC3
:104FD000F4E002C0E2EAF4E0849190E09F0126C090
:104FE00064307105F8F4FB01EE0FFF1FED52FE4F28
:104FF0002081318189E090E019C06430710590F41E
:10500000FB01EE0FFF1FE553FE4F20813181FB01B5
:10501000E953FE4F808190E009C082E190E023E4F3
:1050200035E004C080E090E020E030E0FA01318318
:10503000208308950895CF93C82F0E941A28C09303
:105040005F03CF9108958091B103843011F482E021
:10505000089581E0089580915F03811102C00C944E
:105060002328089580E189BD82E189BD09B400FE4D
:10507000FDCF8091D8008F7D8093D8008091E00093
:1050800082608093E0008091E00081FDFCCF089574
:10509000CF92DF92EF92FF920F931F93CF93DF9304
:1050A0007C018B01EA010E94AA29811131C020975D
:1050B00031F088819981081B190BE80EF91EC12C6B
:1050C000D12C0115110519F18091E80085FD14C05E
:1050D0008091E8008E778093E800209741F08881E6
:1050E00099818C0D9D1D9983888385E011C00E9454
:1050F000AA29882331F30CC0F70181917F018093A5
:10510000F10001501109FFEFCF1ADF0ADACF80E07A
:10511000DF91CF911F910F91FF90EF90DF90CF9093
:1051200008952091B8033091B9032617370748F046
:105130006115710539F42091E8002E772093E8007D
:1051400001C0B901FC0120E061157105B9F1809140
:10515000B103882309F440C0853009F43FC0809131
:10516000E80083FD3DC08091E80082FF06C0809189
:10517000E80082FF26C080E008958091E80080FF6B
:10518000E3CF2091F3008091F20090E0922B611523
:10519000710551F08830910538F421912093F10088
:1051A000615071090196F3CF21E0089709F020E0E2
:1051B0008091E8008E778093E800C6CF2111C7CF99
:1051C000D6CF8091B103882339F0853039F08091B2
:1051D000E80083FFCCCF04C082E0089583E0089507
:1051E00081E008952091B8033091B903261737075D
:1051F00048F06115710539F42091E8002E7720936D
:10520000E80001C0B901FC0120E061157105C1F1A0
:105210008091B103882309F441C0853009F440C06E
:105220008091E80083FD3EC08091E80082FF06C0C7
:105230008091E80082FF27C080E008958091E80017
:1052400080FFE3CF2091F3008091F20090E0922B59
:105250006115710559F08830910540F4249120932F
:10526000F1003196615071090196F2CF21E0089763
:1052700009F020E08091E8008E778093E800C5CFA8
:105280002111C6CFD5CF8091B103882339F0853065
:1052900039F08091E80083FFCBCF04C082E008950D
:1052A00083E0089581E00895982F973058F5909302
:1052B000E900981739F07091EC002091ED005091C1
:1052C000F00003C0242F762F50E021FF19C0309149
:1052D000EB003E7F3093EB003091ED003D7F30934B
:1052E000ED003091EB0031603093EB007093EC00F7
:1052F0002093ED005093F0002091EE0027FF07C0AF
:105300009F5FD3CF8F708093E90081E0089580E0A4
:1053100008958091B20387FD05C08091E80080FF69
:105320000EC012C08091E80082FD05C08091B103DB
:105330008111F8CF08958091E8008B7708C08091A3
:10534000B1038111EACF08958091E8008E778093B0
:10535000E80008958091E4009091E50045E62091F1
:10536000EC0020FF21C02091E80020FD21C0209109
:10537000B103222389F0253089F02091EB0025FD2F
:105380000FC02091E4003091E5002817390739F368
:10539000415041F0C901E3CF82E0089583E00895D0
:1053A00081E0089584E008952091E80022FFDFCF96
:1053B00080E008950E94482A0E94502AE0EEF0E022
:1053C000808181608083E8EDF0E080818F77808349
:1053D00019BCA7EDB0E08C918E7F8C9380818F7E7D
:1053E00080831092B00308950F931F93CF93DF93A0
:1053F0000E94482A0E94502AC8EDD0E088818F7709
:10540000888388818068888388818F7D888319BCA0
:105410001092B1031092AD031092AF031092AE033D
:1054200000EE10E0F80180818B7F808388818160AD
:10543000888342E060E080E00E945429E1EEF0E0E1
:1054400080818E7F8083E2EEF0E0808181608083C6
:10545000808188608083F80180818E7F808388814D
:1054600080618883DF91CF911F910F910895E8EDBE
:10547000F0E080818F7E8083E7EDF0E080818160C5
:10548000808384E082BF81E08093B0030C94F42990
:10549000E8EDF0E080818E7F80831092E200089535
:1054A0001092DA001092E10008951F920F920FB649
:1054B0000F9211242F933F934F935F936F937F939A
:1054C0008F939F93AF93BF93EF93FF938091E100EE
:1054D00082FF0BC08091E20082FF07C08091E10053
:1054E0008B7F8093E1000E94B92C8091DA0080FFCD
:1054F0001FC08091D80080FF1BC08091DA008E7F92
:105500008093DA008091D90080FF0DC080E189BDD1
:1055100082E189BD09B400FEFDCF81E08093B10333
:105520000E94AC2605C019BC1092B1030E94BA2695
:105530008091E10080FF19C08091E20080FF15C0DA
:105540008091E2008E7F8093E2008091E200806192
:105550008093E2008091D80080628093D80019BCCB
:1055600085E08093B1030E94BE268091E10084FF14
:1055700030C08091E20084FF2CC080E189BD82E1CF
:1055800089BD09B400FEFDCF8091D8008F7D809346
:10559000D8008091E1008F7E8093E1008091E2004D
:1055A0008F7E8093E2008091E20081608093E20030
:1055B0008091AD03882311F084E007C08091E3005F
:1055C00087FF02C083E001C081E08093B1030E94A5
:1055D000BF268091E10083FF29C08091E20083FF14
:1055E00025C08091E100877F8093E10082E0809375
:1055F000B1031092AD038091E1008E7F8093E100B2
:105600008091E2008E7F8093E2008091E2008061D1
:105610008093E20042E060E080E00E9454298091A3
:10562000F00088608093F0000E94BD26FF91EF910A
:10563000BF91AF919F918F917F916F915F914F91AA
:105640003F912F910F900FBE0F901F9018951F92B2
:105650000F920FB60F9211242F933F934F935F93A6
:105660006F937F938F939F93AF93BF93CF93EF935A
:10567000FF93C091E900CF708091EC001092E90097
:105680008091F000877F8093F00078940E94632BD4
:105690001092E9008091F00088608093F000C09340
:1056A000E900FF91EF91CF91BF91AF919F918F91C1
:1056B0007F916F915F914F913F912F910F900FBE0E
:1056C0000F901F9018951F93CF93DF93CDB7DEB740
:1056D000AA970FB6F894DEBF0FBECDBFE2EBF3E0A2
:1056E0008091F100819323E0EA3BF207C9F70E9421
:1056F000D5268091E80083FF24C12091B203309128
:10570000B303832F90E08A30910508F01AC1FC01A1
:10571000E556FF4F0C940D30203821F0223809F067
:1057200010C108C08091AE039091AF03992389F016
:1057300082600FC08091B6038F70873008F001C17E
:105740008093E9008091EB0085FB882780F9109217
:10575000E9009091E800977F9093E8008093F10032
:105760001092F100CCC0822F8D7F09F0EAC0222375
:1057700019F0223061F0E5C08091B403813009F066
:10578000E0C0333009F080E08093AF032AC08091FD
:10579000B403811126C02091B6032F708FEF820FC2
:1057A000863008F0CEC02093E9008091EB0080FFA6
:1057B00018C08091EB00333011F4806210C080611A
:1057C0008093EB0081E090E001C0880F2A95EAF712
:1057D0008093EA001092EA008091EB008860809349
:1057E000EB001092E9008091E800877F8093E80049
:1057F0000E948929A6C02111A4C01091B4031F776B
:105800008091E3008078812B8093E3008091E80011
:10581000877F8093E8000E9489298091E80080FFBB
:10582000FCCF8091E30080688093E300112311F0A6
:1058300083E001C082E08093B10383C0205822300E
:1058400008F07FC08091B4039091B5038C3D23E0B4
:10585000920779F583E08A838AE289834FB7F894C7
:10586000DE01139620E03EE051E2E32FF0E050939A
:105870005700E49120FF03C0E295EF703F5FEF70A7
:105880008E2F90E0EA3010F0C79601C0C0968D933D
:105890009D932F5F243149F74FBF8091E800877FA8
:1058A0008093E8006AE270E0CE0101960E949128A0
:1058B00015C06091B6037091B703AE014F5F5F4FA3
:1058C0000E94C1270097E9F12091E800277F2093EB
:1058D000E800BC0189819A810E94F2288091E80049
:1058E0008B778093E8002DC0203859F58091E8002F
:1058F000877F8093E8008091AD038093F1008091D1
:10590000E8008E7773CF21111CC09091B4039230C0
:10591000C0F48091E800877F8093E8009093AD0306
:105920000E9489298091AD03811104C08091E30018
:1059300087FF02C084E001C081E08093B1030E9430
:10594000C1268091E80083FF0AC08091E800877F2C
:105950008093E8008091EB0080628093EB00AA9630
:105960000FB6F894DEBF0FBECDBFDF91CF911F9170
:1059700008950895CF938091B1038823B1F0809169
:10598000E9008F709091EC0090FF02C090E801C098
:1059900090E0C92FC82B1092E9008091E80083FDA8
:1059A0000E94632BCF70C093E900CF9108955058A7
:1059B000BB27AA270ED09EC18FD130F094D120F002
:1059C00031F49F3F11F41EF45FC10EF4E095E7FB44
:1059D00055C1E92FA0D180F3BA1762077307840776
:1059E000950718F071F49EF5B8C10EF4E0950B2EF2
:1059F000BA2FA02D0B01B90190010C01CA01A00121
:105A00001124FF27591B99F0593F50F4503E68F17B
:105A10001A16F040A22F232F342F4427585FF3CFBC
:105A2000469537952795A795F0405395C9F77EF48D
:105A30001F16BA0B620B730B840BBAF09150A1F0D6
:105A4000FF0FBB1F661F771F881FC2F70EC0BA0F5C
:105A5000621F731F841F48F4879577956795B795E4
:105A6000F7959E3F08F0B3CF9395880F08F09927DC
:105A7000EE0F9795879508950CD03CC134D140F036
:105A80002BD130F021F45F3F19F0F8C0511166C1FD
:105A9000FBC041D198F39923C9F35523B1F3951B6A
:105AA000550BBB27AA2762177307840738F09F5F3F
:105AB0005F4F220F331F441FAA1FA9F333D00E2EAE
:105AC0003AF0E0E830D091505040E695001CCAF71B
:105AD00029D0FE2F27D0660F771F881FBB1F2617E0
