:100000000C942B030C946F030C946F030C946F03EC
:100010000C946F030C946F030C946F030C946F0398
:100020000C946F030C946F030C94922A0C94642B21
:100030000C9400210C946F030C946F030C946F03C9
:100040000C946F030C946F030C946F030C946F0368
:100050000C946F030C9467210C946F030C946F0342
:100060000C946F030C946F030C946F030C946F0348
:100070000C946F030C946F030C946F030C946F0338
:100080000C946F030C946F030C946F030C946F0328
:100090000C946F030C946F030C946F030C946F0318
:1000A0000C946F030C946F030C946F0304070A07FE
:1000B0000E071107150719071D07210726072A072D
:1000C0002E073207350739073D07410745074A071D
:1000D00094169416CE16CE16051727179018CD181D
:1000E0006D17CD18141814188918CD18CD18C91803
:1000F0002118211821182118211821182118211838
:100100002118211821182118211821182118211827
:100110003318411848184F18591861196119741982
:1001200074196A197419741974196119611970199B
:10013000741974197019C92BF02BDE2CF02BDE2CDE
:10014000382C5B2CDE2CB12CC02C07634236B79BBD
:10015000D8A71A39685618AEBAAB558C1D3CB7CC27
:100160005763BD6DEDFD753EF6177231BF0000009F
:10017000803F05A84CCDB2D44EB93836A9020C50F8
:10018000B9918688083CA6AAAA2ABE000000803F32
:1001900000F001F0290035002E00E100354100009B
:1001A0001E00340004003361F680E3001F003600B7
:1001B00012001400E4802B622000370008000D00BC
:1001C00050002A002100130018000E004F004A00C2
:1001D00022001C000C001B00000065642F004C0076
:1001E0000000260200004D0030002A000000270217
:1001F0000000E2002300090007000500000029615B
:1002000024000A000B00100052004B0025000600DD
:1002100017001A0051002C002600150011001900CB
:100220002F02286127000F0016001D0030024E002B
:100230002E0038002D0031000151000001000100A6
:1002400001000100010000003A001E02200222020B
:10025000010001003B001F022102230201000100F6
:100260003C002F0226022F00010001003D00300259
:1002700027023000010001003E0031023500350246
:100280000000010001000100000001000000010069
:100290000100010000000100000001003F005200C9
:1002A00051002402000001004000240021001E0033
:1002B000010001004100250022001F00370001005D
:1002C00042002600230020002700010043002502F1
:1002D0002E0231002E000100440045000100010003
:1002E0000100000001000100010001000100000008
:1002F00001000100010001000100010001000100F6
:10030000F2000100010001000100F000F100010015
:10031000F400010001000100F3000100F5000100FC
:1003200001000100010001000000010001000100C6
:1003300000000100000001000100010000000100B8
:1003400000000100010001000100010000000100A7
:100350000100010001000100A900010001000100ED
:100360000100AC00AA00B600010001000100AB00D2
:10037000A8000100010001000100010001000100CE
:1003800001000100AE000100010000006801F00062
:10039000B40078005A007F3F1F643214643214782E
:1003A0003C1E1E140A0500000000000101010101AD
:1003B000010101010202020202020202020303031E
:1003C00003030303030404040404040505050505ED
:1003D00006060606060707070708080808090909A8
:1003E0000A0A0A0A0B0B0B0C0C0C0D0D0D0E0E0F4E
:1003F0000F0F1010111111121213131414151516DA
:10040000161717181819191A1A1B1C1C1D1D1E1F48
:100410001F20202122222324252526272728292A98
:100420002B2B2C2D2E2F2F303132333435363637BF
:1004300038393A3B3C3D3E3F4041424344464748C1
:10044000494A4B4C4D4F50515253555657585A5B91
:100450005C5E5F606263646667696A6C6D6E707132
:1004600073747678797B7C7E8081838486888A8B9E
:100470008D8F91929496989A9B9D9FA1A3A5A7A9D1
:10048000ABADAFB1B3B5B7B9BBBDBFC1C4C6C8CAC8
:10049000CCCFD1D3D6D8DADCDFE1E4E6E8EBEDF07F
:1004A000F2F5F7FAFCFF16034500720067006F00D3
:1004B00044006F007800200045005A000000160339
:1004C0004500720067006F0044006F007800200054
:1004D00045005A0000000403090409026D000401EC
:1004E00000A0FA0904000001030101000921110123
:1004F00000012240000705810308000A09040100E9
:100500000103010200092111010001224D0007052C
:10051000820308000A090402000103000000092107
:10052000110100012236000705830308000A0904AF
:10053000030001030000000921110100012239001C
:10054000070584032000011201100100000008EDDE
:10055000FE071301000102000105010906A10105C2
:100560000719E029E71500250195087501810205A5
:1005700008190129059505750191029501750391E9
:10058000010507190029F71500250195F875018166
:1005900002C005010980A1018502160100260300A1
:1005A0001A81002A8300751095018100C0050C098D
:1005B00001A1018503160100269C021A01002A9C54
:1005C00002751095018100C005010902A101090110
:1005D000A1000509190129051500250195057501D9
:1005E00081029501750381010501093009311581E9
:1005F000257F95027508810609381581257F9501AB
:1006000075088106050C0A38021581257F9501754C
:10061000088106C0C005010906A101050719E029E6
:10062000E71500250195087501810295017508817E
:1006300001050819012905950575019102950175B6
:100640000391010507190029FF150026FF009506F3
:1006500075088100C00011241FBECFEFDAE0DEBFB5
:10066000CDBF04B603FE24C08091BB039091BC03B0
:10067000A091BD03B091BE038730904BA740B04B13
:10068000B9F41092BB031092BC031092BD031092F8
:10069000BE0314BE84B7877F84BF88E10FB6F89489
:1006A00080936000109260000FBEE0E0FFE30995C8
:1006B00011E0A0E0B1E0E4E3F1E602C005900D92A4
:1006C000AC3DB107D9F713E0ACEDB1E001C01D922C
:1006D000AB3BB107E1F70E94C4270C9498300C940F
:1006E00000001092B9008AE08093B800089594EA5F
:1006F0009093BC009091BC0097FFFCCF9091B90003
:10070000987F983021F0903111F081E00895809326
:10071000BB0084E88093BC008091BC0087FFFCCFC5
:100720008091B900887F883111F0803471F780E0C2
:10073000089584E98093BC008091BC0084FDFCCFC7
:1007400008958093BB0084E88093BC008091BC0036
:1007500087FFFCCF9091B900987F81E0983209F42F
:1007600080E0089584E88093BC008091BC0087FFFE
:10077000FCCF8091BB00089580B38C7080BB81B3A7
:10078000836F81BB089580910001811115C080E4C1
:100790000E9477038093000181110CC082E10E94C6
:1007A000A10380930001811105C08FEF0E94A10376
:1007B000809300010E94990384B1807F84B985B140
:1007C000807F85B98AB1837F8AB98BB1837F8BB9EA
:1007D0003E98469808950C944D060E94AF0580936C
:1007E00000010E94C3030E94BC03E1E3F2E02DED8F
:1007F00031E0119280E090E0D901A80FB91F1C925E
:10080000019686309105C1F72A5F3F4F82E0EF33B2
:10081000F80779F70C9430090E94AF058093000126
:100820000E94C3030E94BC03E1E3F2E0119282E064
:10083000EF33F807D9F7089596E0899FA0011124B6
:1008400020E030E080E043525E4F61E070E0FA016A
:10085000E20FF31F9081992319F09150908307C004
:10086000FB01022E01C0EE0F0A94EAF78E2B2F5FD8
:100870003F4F2630310559F7089596E0699FB00142
:10088000112420E030E090E063527E4FAFE0AC01F5
:10089000022E02C0559547950A94E2F740FF04C026
:1008A000FB01E20FF31FA0832F5F3F4F263031057E
:1008B00071F708958F929F92BF92CF92EF92FF921D
:1008C0000F931F93CF93DF9380910001882379F0DA
:1008D0008091DC018F5F8093DC01811108C00E9450
:1008E000AF0580930001811102C00E94410581E3A0
:1008F000882E82E0982EC0E0D0E0EE24E394F12C24
:1009000001E01C2FC73000F58091000181113CC02F
:1009100080E40E94770380930001811112C082E17C
:100920000E94A1038093000181110BC0C7010C2E0E
:1009300001C0880F0A94EAF780950E94A103809372
:1009400000010E94990320C0CA30A1F028F4C830E9
:1009500059F0C93061F005C0CC3089F070F0CD306D
:1009600089F0209A289810C0219A29980DC0229ABF
:100970002A980AC0239A2B9807C0529A01C0539A0A
:100980005B9802C03E9A469880EA8A95F1F7812FDB
:100990000E941C04B82E173018F5809100018111B7
:1009A00044C080E40E94770380930001882311F003
:1009B000C12C12C083E10E94A10380930001811128
:1009C000F7CF81E40E947703809300018111F0CF7B
:1009D0000E94B203C82EC0940E9499032C2D26C0F9
:1009E0002FB121702027799B02C080E001C082E0F6
:1009F000282B7C9B02C080E001C084E0282B7D9BDB
:100A000002C080E001C088E0282B7E9B02C080E00D
:100A100001C080E1282B9FB19095991F9927991FBC
:100A20009295990F907E292B01C020E0F4018081DE
:100A3000C22ECB209B2D90959823C92A612F8C25FF
:100A40000E943D04F401C1924F010E94C30321960C
:100A5000CE30D10509F055CF0E94320981E0DF91F7
:100A6000CF911F910F91FF90EF90CF90BF909F90EB
:100A70008F900895E82FF0E0EF5CFD4F808108959E
:100A8000089556985E9825982D9826982E98279820
:100A90002F988FEF90E09093890080938800909337
:100AA0008B0080938A0090938D0080938C00259A10
:100AB0002D9A2FEF80E792E0215080409040E1F79F
:100AC00000C00000269A2E9A2FEF80E792E0215076
:100AD00080409040E1F700C00000279A2F9A2FEF46
:100AE00080E792E0215080409040E1F700C0000094
:100AF00025982D982FEF80E792E02150804090407C
:100B0000E1F700C0000026982E982FEF80E792E0D2
:100B1000215080409040E1F700C0000027982F98B6
:100B200056985E9825982D9826982E9827982F9855
:100B3000089589EA8093800089E080938100249859
:100B40002C983F988AB18F7C8AB96E98479A8BB15E
:100B500080638BB9769A0E9441050C944A0680E224
:100B60008093000180913F0281110EC00E947103A9
:100B700081E080933F022FEF83ED90E3215080408E
:100B80009040E1F700C0000080E40E94770380936A
:100B9000000181112EC00E94A103809300018111E8
:100BA00028C00E94A10380930001811122C08FE31D
:100BB0000E94A1038093000181111BC00E94990330
:100BC00080E40E94770380930001811112C08CE0C1
:100BD0000E94A1038093000181110BC00E94A10318
:100BE00080930001811105C08FE30E94A1038093CF
:100BF00000010E949903809100010895EF92FF92F5
:100C00000F931F93CF93DF938C017B01EA010E9426
:100C1000691F827280934002F8019281992399F0B2
:100C2000882321F00E941C0CCE0103C00E941C0CE2
:100C3000C7010E94E40CDF91CF911F910F91FF90AB
:100C4000EF900C94980CDF91CF911F910F91FF9032
:100C5000EF900895662319F0613031F0089544EC67
:100C600050E064EE70E004C046ED50E066EF70E0E6
:100C70000C94FE0561110BC0FC018281882321F0D8
:100C800085EE0E94D41403C085EE0E94E31580E037
:100C900090E0089581E00C94150C6091030370912D
:100CA000040380910503909106030E94A21F5698A9
:100CB0005E9825982D9826982E9827982F98813001
:100CC00019F0823021F00895259A2D9A0895269AD8
:100CD0002E9A089581E0089581E008950C946C06A1
:100CE0000E944F192FEF84E39CE0215080409040F8
:100CF000E1F700C000000C948D21FF920F931F9329
:100D0000CF93DF938C01FC01C081D181809192024D
:100D1000811113C08281882349F0CE010E94971E61
:100D2000F82E682FCE010E943B1E04C0CE010E9407
:100D30006A1EF82EBE018F2D04C0CE010E94971EA0
:100D4000BE010E944609EC01B8010E946E0688238C
:100D500009F47FC2B801CE010E94A50B882309F4D3
:100D600078C2B801CE010E94F10B882309F471C248
:100D7000CA3CFCE5DF0741F4F8018281882309F4CD
:100D800068C20E94460F65C2CB3C8CE5D80708F0CC
:100D900024C1C33C9CE5D90741F4F8018281882332
:100DA00009F457C20E94E70F54C2C43CECE5DE07C9
:100DB00008F0D0C0C531FCE5DF0708F07DC0C230C7
:100DC0008CE5D80708F4A0C0F8018281882309F4D3
:100DD00093C00E941620811102C00E94F51F0E943C
:100DE000292090E09093AD038093AC03FE01E35083
:100DF000FC45E231F10520F4EA5AFF4F0C944A30E9
:100E00008091AC03816003C08091AC0382608093C9
:100E1000AC034BC08091AC038460F9CF8091AC03EC
:100E200013C08091AC038061F2CF8091AC038062EB
:100E3000EECF8091AC038064EACF8091AC038068F0
:100E4000E6CF8091AC0384608860E1CF8091AC03F1
:100E50008E7FDDCF8091AC038D7FD9CF8091AC03A5
:100E60008B7FD5CF8091AC0313C08091AC038F7E74
:100E7000CECF8091AC038F7DCACF8091AC038F7BA6
:100E8000C6CF8091AC038F77C2CF8091AC038B7FAC
:100E9000877FBDCF9091AC0397FB882780F921E035
:100EA000822780FB97F99093AC038091AC030E945A
:100EB0002D200E944F19CDC1C531DC45C1F40E94DF
:100EC000691F382FF801228180910301909104015C
:100ED0002223B1F13A7A21E009F420E02093410283
:100EE000222361F165E30E9499200E94361F81E070
:100EF0008093460280934702C801DF91CF911F91F2
:100F00000F91FF900C946A06C1159CE5D90741F436
:100F1000F8018281882309F49CC10E94700699C15E
:100F2000C130DC4521F7F8018281882309F491C1A1
:100F3000809130038160809330038BC169E2D3CF0D
:100F400020914102222311F065E301C069E20E9471
:100F5000A420CBCFC63C8CE5D80741F4F8018281B0
:100F6000882309F476C10E94E80E73C1C73C9CE552
:100F7000D907C0F4C43CECE5DE0741F4F8018281F6
:100F8000882309F466C10E94DD0F63C1C53CDC45BE
:100F900009F0ADCFF8018281882309F45AC10E947B
:100FA000CF0E57C1F8018281C83CFCE5DF0731F460
:100FB000882309F44EC10E94190F4BC1C93CDC457E
:100FC00030F4882309F445C10E94070F42C18823E9
:100FD00009F43FC10E942B0F3CC1C03DECE5DE0788
:100FE000C1F4F8018281882309F433C10E94A10D64
:100FF000653171058105910540F00E94A10D6731B1
:1010000071058105910508F4BECF85E10E94600F4E
:1010100020C1C13DFCE5DF0708F077C0CD3C8CE581
:10102000D807B1F4F8018281882309F412C10E9423
:10103000A10D663071058105910540F00E94A10D5A
:10104000683071058105910508F49DCF86E0DECFFB
:10105000CE3C9CE5D90728F5CB3CECE5DE0739F41E
:10106000F8018281882309F4F4C081E0CFCFCC3C21
:10107000DC4509F03CCFF8018281882309F4E9C0FE
:101080000E94A10D623071058105910540F00E941A
:10109000A10D653071058105910508F474CF82E0DA
:1010A000B5CFCE3C8CE5D807B1F4F8018281882316
:1010B00009F4CFC00E94A10D693071058105910529
:1010C00040F00E94A10D6E3071058105910508F474
:1010D0005ACF89E09BCFCF3CDC4509F008CFF8011F
:1010E0008281882309F4B5C00E94A10D6F3071057B
:1010F0008105910540F00E94A10D643171058105C3
:10110000910508F440CF8FE081CFC33DECE5DE07C9
:1011100061F5F8018281882351F0109246020E9405
:101120003221909343028093420282E03DC00E94AC
:10113000691F85FF05C081E08093460280934702C6
:101140008091460281110FC080914202909143022A
:101150000E943E21883C910530F486E20E94D4141E
:1011600086E20E94E31582E030C0C43DFCE5DF0763
:1011700078F1C73DECE5DE0709F44DC0C83DFCE55C
:10118000DF0709F44EC0C43DDC4509F0B0CEF801DC
:101190008281882361F0109247020E94322190934D
:1011A00045028093440280E20E94441652C00E948D
:1011B000691F81FF05C081E080934602809347024A
:1011C000809147028823A9F180E20E944B1641C01A
:1011D000C13D8CE5D80731F4F80182818823C9F13B
:1011E00088E114CFC23DDC4509F081CEF80182814F
:1011F000882379F10E94A10D69317105810591055E
:1012000040F00E94A10D623271058105910508F43C
:10121000BACE89E1FBCEF80182818823D1F080E04B
:1012200005C0F80182818823A1F082E00E9458283D
:1012300010C080914402909145020E943E21883C5A
:10124000910510F687E20E94D41487E20E94E3150C
:10125000BBCF80E0DF91CF911F910F91FF90089558
:101260000C9499050C94EB03282F882339F090E017
:101270002A3010F44D9608950697089587E290E07D
:10128000089508950C9441090C94420996E0799FC1
:10129000F001112494E5899FE00DF11D1124E60F62
:1012A000F11DEE0FFF1FEC56FE4F859194910895AE
:1012B000880F991F80579E4FFC0185919491089546
:1012C000CF93DF930E9446090E94FB0AEC0181152F
:1012D00020E49207C0F5C11580E3D80708F0E5C007
:1012E000C03ED105D8F4C03CD10508F072C0C83A60
:1012F000D10578F4C53AD10508F06FC0C130D105E9
:1013000009F475C108F42CC1C430D10508F06FC1CF
:1013100027C1CD3BD10508F46BC022C1CF3FD10519
:1013200009F048F4C03FD10508F0B9C0C83ED10566
:1013300008F45DC115C1C11520E2D20708F457C1F8
:10134000CE019F70AEC0C11584E5D807D8F4C11591
:1013500023E5D20708F0E4C0C11581E5D80740F4C1
:10136000C11520E5D20708F0AAC0DF70D06A3FC1DE
:10137000C11582E5D80708F0BEC0DC2FCC27C16FAD
:10138000D06A35C1C11526E5D20750F4C11585E5EF
:10139000D80708F0DAC0DC2FCC27C46FD06A27C189
:1013A000C11528E5D20708F4DBC0C11589E5D807C7
:1013B00008F4D1C0CE0190568115904208F0D0C0FB
:1013C0008D2F8F710E94770BDD27D0628F71D82B04
:1013D0000EC1CE01805C910964C0C53AD10509F403
:1013E000C2C0C63AD10509F4C1C0C3E8D0E4FFC009
:1013F000C83AD10509F4BDC0C93AD10509F4BCC049
:10140000CA3AD10509F4BBC0CB3AD10509F4BAC038
:10141000CC3AD10509F4B9C0CB3BD10509F4B8C029
:10142000CC3BD10509F4B7C0CD3AD10509F4B6C01B
:10143000C03BD10509F4B5C0CE3AD10509F4B4C01A
:10144000CF3AD10509F4B3C0C13BD10509F4B2C00C
:10145000C23BD10509F4B1C0C33BD10509F4B0C00A
:10146000C43BD10509F4AFC0C53BD10509F4AEC0FA
:10147000C63BD10509F4ADC0C73BD10509F4ACC0EA
:10148000C83BD10509F4ABC0C93BD10509F4AAC0DA
:10149000CA3BD10509F0A9C0CAE2D6E4A8C0D0650C
:1014A000A6C00E945809EC01A2C0CE019927D3FF23
:1014B00003C0EC01D86C9BC0EC01D06C98C02C2F01
:1014C000237081E090E002C0880F991F2A95E2F70F
:1014D0009C689E0174E0369527957A95E1F7237014
:1014E000922BCF70C695C69520E2C29FE0011124D1
:1014F000C82BD92B7CC08C2F8695869520E2829FA5
:10150000C00111249E0123703327C1E0D0E002C046
:10151000CC0FDD1F2A95E2F7C82BD92BDC6867C0FA
:101520008C2F8695869520E2829FC00111249E0112
:1015300023703327C1E0D0E002C0CC0FDD1F2A9515
:10154000E2F7C82BD92BDA6852C0CF71DD27DC2F28
:10155000CC27D0624CC0DC2FCC27C06FD06A47C0EC
:10156000C0E0D0E044C0C1E8D0E441C0C2E8D0E46B
:101570003EC0C2EED4E43BC0C9EED4E438C0CAEEEB
:10158000D4E435C0C5EBD4E432C0C6EBD4E42FC0FC
:10159000C3EBD4E42CC0C4EBD4E429C0C7EBD4E43F
:1015A00026C0CCECD4E423C0CDECD4E420C0C3E806
:1015B000D5E41DC0CAE8D5E41AC0C2E9D5E417C015
:1015C000C4E9D5E414C0C1E2D6E411C0C3E2D6E454
:1015D0000EC0C4E2D6E40BC0C5E2D6E408C0C6E241
:1015E000D6E405C0C7E2D6E402C0C0E0D4E4CE0130
:1015F000DF91CF9108958238910549F1B0F481339C
:10160000910509F459C048F48932910509F44FC095
:101610008A32910509F455C008958533910509F47E
:1016200041C08933910599F00895833E910531F1C8
:1016300038F4803E910591F0823E9105A9F008951D
:10164000863E910501F1873E910539F1089520917B
:10165000AC0320FD3BC021FD39C008958091AC034F
:1016600080FF34C089E341C08091AC0382FF32C067
:101670008091AC0384FF2CC080E037C08091AC0324
:1016800082FD28C0F5CF8091AC0383FF25C08091F7
:10169000AC0384FDF1CF87EE28C08091AC0383FDBD
:1016A0001BC0F5CF8091AC0385FF18C019C0809195
:1016B000AC0385FF15C012C08091AC0386FF12C039
:1016C00013C08091AC0386FF0FC00CC080EE0DC02C
:1016D00083EE0BC082EE09C086EE07C085E305C02D
:1016E00089E203C081E301C08AE290E00895CF93CC
:1016F000C82F0E942920282F30E03093AD0320937B
:10170000AC0382FF0DC08C2F8871883019F4C77F1D
:10171000C46006C08C2F8471843011F4CB7FC86004
:1017200023FF0DC08C2F8871883119F4C77EC461E6
:1017300006C08C2F8471843111F4CB7EC86124FDE6
:10174000C77E8C2FCF9108950895CF93DF93EC013E
:10175000FB018281811102C081E040C0809155026D
:10176000811125C0C631DC45B9F70E94A40B81E088
:10177000809355020E943221909354028093530229
:101780001092480210924A021092490210924C02A2
:1017900010924B0210924E0210924D021092500283
:1017A00010924F02109252021092510216C0809174
:1017B0005302909154020E943E21883C910560F6AC
:1017C00080914802E82FF0E0EE0FFF1FE75BFD4F2E
:1017D000D183C0838F5F8093480280E0DF91CF91F7
:1017E0000895CF93DF93EC01C13080E8D807C8F0AB
:1017F000FB0182818823A9F080915602811109C0E2
:101800008CE090E00E9450300E94150C81E08093A3
:1018100056020E941C0CCE019F770E94E40C0E948D
:10182000980C81E0DF91CF91089580935702682F43
:101830008CE090E00C946430E0910301F09104019D
:1018400080818093610381FF03C081EE0E94E315D4
:101850008091610385FF03C085EE0E94E3158091AE
:10186000610380FF03C080EE0E94E3158091610355
:1018700084FF03C084EE0E94E3158091610382FF20
:1018800003C082EE0E94E3158091610386FF03C0CE
:1018900086EE0E94E3158091610383FF03C083EE0F
:1018A0000E94E3158091610387FF03C087EE0E94C9
:1018B000E31580915702823001F1A8F48823C9F022
:1018C000813079F580EE0E94D41481EE0E94D41408
:1018D00088E10E94D41488E10E94E31581EE0E9401
:1018E000E31580EE1CC0843081F08530D1F486EEA3
:1018F00001C082EE0E94D41414C082EE0E94D4145F
:1019000087E50E94D41487E50AC086EE0E94D414AD
:1019100086EE0E94E31588E10E94D41488E10E94BB
:10192000E3158FE39CE90197F1F700C000000895EB
:1019300080915702813049F030F0823021F08530BB
:1019400051F486EE06C082EE04C08CE20E94D414EC
:101950008CE20E94E3158091610381FF03C081EE58
:101960000E94D4148091610385FF03C085EE0E941C
:10197000D4148091610380FF03C080EE0E94D414D0
:101980008091610384FF03C084EE0E94D41480918F
:10199000610382FF03C082EE0E94D4148091610330
:1019A00086FF03C086EE0E94D4148091610383FFFA
:1019B00003C083EE0E94D4148091610387FF03C0AB
:1019C00087EE0C94D4140895FF920F931F93CF9336
:1019D000DF938C01CCE0D0E0C8010C2E02C09695BC
:1019E00087950A94E2F7282F2F70F22E822F0E94FB
:1019F00034090E94D4148F2D0E9434090E94E315EB
:101A00002497CC3F8FEFD80739F7DF91CF911F9103
:101A10000F91FF900895DF92EF92FF920F931F9323
:101A2000CF93DF93662309F44AC0E42FF0E0AFEFD1
:101A3000B0E0A61BB109BF01A69FE001A79FD00D92
:101A4000B69FD00D1124FD2FDD2E7B01ED1AF1087C
:101A50000CE310E0B8010E942230EB01BC01E69ECD
:101A6000C001E79E900DF69E900D1124B8010E94D2
:101A70002230C230D105B1F040F4209779F021979F
:101A800009F58F2FD42E461B20C0C430D10599F004
:101A900068F02597B9F4842F861B17C08F2FD62E98
:101AA000DF0E13C0862F8F0FD42E03C0D42ED61A6C
:101AB000842F4F2F0AC0842F462F4F0F06C0842F2C
:101AC000D42E03C080E0D12C40E0E42FF0E0EA55B2
:101AD000FC4F4491ED2DF0E0EA55FC4F9491E82F36
:101AE000F0E0EA55FC4FE491D90111964C9311971F
:101AF0009C931296EC93DF91CF911F910F91FF90E1
:101B0000EF90DF90089588E090E00C945830AB019E
:101B1000BC0188E090E00C94763083E0809362030F
:101B2000109263038FEF8093640380936503609149
:101B300062037091630380916403909165030C9438
:101B4000870D6091620360FF06C066956F7370E059
:101B500080E090E0089560E070E0CB01089580910E
:101B6000620380FF06C06FE070E08AE693E00C94A9
:101B70000F13ECE6F3E0DF0111971C92DF011297DF
:101B80001C921082349683E0E83AF807A1F7EBCF75
:101B9000ECE6F3E0DF0111978C93DF0112976C9371
:101BA0004083349693E0E83AF907A1F70C94AF0D1F
:101BB000CF92DF92EF92FF920F931F93CF93DF9319
:101BC00000D000D0CDB7DEB7F82EC92ED62EE42E29
:101BD00000916203109163032091640330916503C7
:101BE000009366031093670320936803309369039F
:101BF0008091620380FF1EC09E012F5F3F4F8F2D9B
:101C00000E940B0D80916603F0FA87F980936603BA
:101C1000F6942091670320782F29C0FA27F92093A2
:101C20006703D0926803E09269034B8169818A81DE
:101C30000E94C80D0F900F900F900F90DF91CF91E1
:101C40001F910F91FF90EF90DF90CF9008958F92AA
:101C50009F92AF92BF92CF92DF92EF92FF920F933B
:101C60001F93CF93DF93EC01862E942E8091620315
:101C700080FF88C0982F9E77923021F4CE010E9479
:101C8000D80D56C0E82FE695EF739EE39E0F9F7325
:101C9000943018F4909065034BC09AE39E0F9F73A5
:101CA000993070F4881F8827881F90916303292F2B
:101CB000220FC22FC82B97FB992790F9D92F38C034
:101CC00087E28E0F8F738A3098F5F0E07997E0FF06
:101CD00002C02FEF01C021E0EE7FE457FC4F859159
:101CE00094916FE070E00E94223026036001279FEC
:101CF000D00C11247E0188E9E81A8EEFF80A0AE672
:101D000013E088E6A82EBB24B394C701B5010E9456
:101D100022309801492D682D0E940B0DEC0CFD1C02
:101D20000C5F1F4F93E0063A190779F70E94AF0D39
:101D3000809162039C2FC0FB87F980936203969584
:101D4000809163038078892BD0FB87F980936303AC
:101D500080926403909265036091620370916303C3
:101D60008091640390916503DF91CF911F910F9152
:101D7000FF90EF90DF90CF90BF90AF909F908F90AB
:101D80000C94870DDF91CF911F910F91FF90EF90F1
:101D9000DF90CF90BF90AF909F908F90089520914B
:101DA0006203221F2227221F30916303432F440F17
:101DB000842F822B37FB992790F90C9668E671E007
:101DC0000E94363040916503609164030C94270EA5
:101DD00020916203221F2227221F30916303432F89
:101DE000440F842F822B37FB992790F98C30910573
:101DF0001CF4845A9E4F01C00C9768E671E00E9463
:101E0000363040916503609164030C94270E8091F5
:101E10006203881F8827881F90916303292F220F50
:101E200097FB992790F9409165036FEF822B0C94F3
:101E3000270E80916203881F8827881F9091630373
:101E4000292F220F97FB992790F94091650360E0B5
:101E5000822B0C94270E40916503842F90E0843FE1
:101E6000910514F4445F01C04FEF80916203881F15
:101E70008827881F90916303292F220F97FB9927AA
:101E800090F960916403822B0C94270E40916503B6
:101E9000842F90E00C9714F04C5001C040E08091EA
:101EA0006203881F8827881F90916303292F220FC0
:101EB00097FB992790F960916403822B0C94270E6D
:101EC0009091620390FF44C09178811102C09260AA
:101ED00003C0833220F094649093620305C08F7333
:101EE000880F892B80936203609162037091630372
:101EF00080916403909165030E94870D8091620335
:101F0000982F9E77923019F410926D0210C0982F7E
:101F100096959F732EE3290F2F73273120F491E0BC
:101F200090936D0204C0995D9F739A3068F3881F87
:101F30008827881F90916303292F220F97FB9927E9
:101F400090F94091650360916403822B0C94270EF5
:101F500008958091300381608093300381E0809305
:101F60006E020E941620811104C00E94F51F0E947B
:101F70008D0D0E94830D60936203709363038093C1
:101F80006403909365036E7761F40E948D0D0E9447
:101F9000830D609362037093630380936403909353
:101FA000650381E080936D028091620380FF04C02D
:101FB00086958F730C94600F0895809162038695C7
:101FC0008F738F5F833208F081E00C94600F8091F3
:101FD0006203982F909590FB80F980936203609143
:101FE00062037091630380916403909165030E9482
:101FF000870D8091620380FF04C086958F730C94D7
:10200000600F10926D022FEF80E792E02150804028
:102010009040E1F700C000000C94AF0DCF93C82FA3
:1020200080916B0290916C020E943E21EC2FF0E0B7
:10203000EE55FC4FE491F0E08E179F0708F442C084
:102040000E94322190936C0280936B0260916A022D
:1020500070E080E090E00E94402E20E030E04FE70A
:1020600053E40E94792D2BED3FE049E450E40E94B7
:10207000612F0E94C42F0E94E62D2BE43AE34EE22A
:102080005FE30E94142D20EF3BEF48ED52E40E94E5
:10209000612F0E94122E462F80916203881F88278D
:1020A000881F90916303292F220F97FB992790F99E
:1020B00060916403822B0E94D80D80916A028F5F29
:1020C00080936A02CF910895CF93C82F80916802C0
:1020D000909169020E943E21EC2FF0E0E156FC4F06
:1020E000E491F0E08E179F07E8F00E943221909370
:1020F0006902809368024091650360916403809156
:102100006602909167020E94D80D809166029091BC
:102110006702019668E671E00E94223090936702A0
:1021200080936602CF910895DF92EF92FF920F9312
:102130001F93CF93DF93D82E809164029091650214
:102140000E943E21ED2DE695F0E0E456FC4FE4912F
:10215000F0E08E179F07E8F10E943221909365020C
:10216000809364020AE613E0C0E0D0E098E6E92E2E
:10217000FF24F39480916202909163028C0F9D1F63
:10218000B7010E9422309801409165036091640379
:102190000E940B0D68960C5F1F4FC83681E0D80770
:1021A00049F70E94AF0D2091620230916302D0FE88
:1021B0000AC0C9010196BE010E94223090936302B9
:1021C0008093620206C0215031093093630220934C
:1021D0006202DF91CF911F910F91FF90EF90DF90FE
:1021E0000895AF92BF92CF92DF92EF92FF920F933A
:1021F0001F93CF93DF93C82F80FD03C0BB24B394FC
:1022000002C0BB24BA9480916002909161020E9446
:102210003E21C695EC2FF0E0E756FC4FE491F0E04C
:102220008E179F0708F466C00E94322190936102C6
:10223000809360024AE6E42E43E0F42E0CE613E0BD
:10224000C0E0D0E0F80131971082F7011082F80168
:10225000108234E0C32ED12CA12C80915F028A0D14
:1022600087FD815F992787FD9095C817D907E9F405
:10227000809165038C9DA0018D9D500D1124559575
:1022800047955595479580916203881F8827881F39
:1022900090916303592F550F97FB992790F9970158
:1022A00060916403852B0E940B0DAB0CF1E0CF1AFB
:1022B000D108C114D10489F6219684E0E80EF11CFE
:1022C0000C5F1F4FCF30D10509F0BCCF0E94AF0D7E
:1022D00080915F0291E0B91206C0811102C08EE0C8
:1022E00007C0815005C090E00196BE010E943630C3
:1022F00080935F02DF91CF911F910F91FF90EF903C
:10230000DF90CF90BF90AF9008950F931F93CF931E
:10231000DF93C82F80915D0290915E020E943E2162
:10232000EC2FF0E0EA56FC4FE491F0E08E179F07A7
:1023300008F466C00E94322190935E0280935D0291
:10234000ECE6F3E0DF0111971C92DF0112971C927B
:102350001082349683E0E83AF807A1F7C0E0D0E0B5
:102360000FE010E0CE01B8010E94363020915C02EF
:10237000332727FD3095880F991F880F991FC217A3
:10238000D307FCF020910201332727FD30952C174D
:102390003D07BCF09C0126593C4F80916203881F89
:1023A0008827881F90916303592F550F97FB992712
:1023B00090F94091650360916403852B0E940B0D99
:1023C00006C0FC01E659FC4F118210821282219650
:1023D000CF30D10539F60E94AF0D209101018091D7
:1023E0005C02820F80935C0290910201920F9093A5
:1023F0000201191614F48E301CF02195209301016E
:10240000DF91CF911F910F910895EF92FF920F935B
:102410001F93CF93DF9380915A0290915B020E94A9
:102420003E21883E9340C8F10E94322190935B0286
:1024300080935A02C0915802D09159022196C170DE
:10244000DD27D0935902C09358020AE613E0F12C1D
:1024500068E7E62E8F2D8695FE01E80FF11DCF016E
:102460008170992798014091650360916403FC0194
:10247000EE9EC001EF9E900D11240E940B0DF3946F
:102480000C5F1F4FFFE0FF12E5CFDF91CF911F914F
:102490000F91FF90EF900C94AF0DDF91CF911F91B2
:1024A0000F91FF90EF90089580916D02882391F134
:1024B00020916203822F86958F739EE3980F9F73FE
:1024C000943018F482500C940E109AE3980F9F7376
:1024D000933018F486500C94641097E3980F9F7310
:1024E000963018F489500C94941091E3980F9F73D0
:1024F000963018F48F500C94F1109BE2980F9F7354
:10250000933018F485510C9485112E77203311F4F3
:102510000C9405120895882319F05198599A02C015
:10252000519A59985098589A95E09A95F1F7000069
:10253000509A589895E09A95F1F70000882311F089
:10254000519A599885E08A95F1F7000008958BB16A
:102550008C7F8BB95098589A5198599A85E08A95F2
:10256000F1F7000008958AB18C7F8AB985E08A95D9
:10257000F1F70000519A599885E08A95F1F700002B
:10258000509A589885E08A95F1F700000895509880
:10259000589A85E08A95F1F700005198599A85E09C
:1025A0008A95F1F700000895CF93DF93D82FC8E004
:1025B0008D2F80780E948B12DD0FC150C9F780E00B
:1025C0000E948B1285E08A95F1F7000085E08A95DC
:1025D000F1F7000080E0DF91CF9108953BB1242F07
:1025E000209523233BB1342B4FB7F894FC01680F9F
:1025F000791FE617F70789F0819198E03BB9000051
:1026000000C087FF2BB9880F000000C000C000C0C9
:102610002BB900C09A9591F7ECCF4FBF0895AF92B8
:10262000BF92CF92DF92EF92FF920F931F93CF93BF
:10263000DF938C01EB01AFB6B090BC00F8948091B1
:10264000BC008B7F8093BC000E94A7120E94B31233
:1026500084E80E94D412CC0FDD1FCC0FDD1F78015F
:102660006E01C00ED11EEC14FD0431F0F701819112
:102670007F010E94D412F7CF0E94C712AFBEB09262
:10268000BC00579A40E8BE01C801DF91CF911F916D
:102690000F91FF90EF90DF90CF90BF90AF900C9490
:1026A000EE1290937402809373020895E091730286
:1026B000F0917402309721F00190F081E02D09949F
:1026C00080E00895E0917302F0917402309721F058
:1026D0000280F381E02D09940895E0917302F09156
:1026E0007402309721F00480F581E02D099408955B
:1026F00020917102309172028217930771F09093CA
:10270000720280937102E0917302F091740230972B
:1027100021F00680F781E02D0994089520916F0241
:10272000309170028217930771F09093700280933A
:102730006F02E0917302F0917402309721F00084EF
:10274000F185E02D0994089508950C94A41381E077
:1027500008950E9429210E94ED030E94B0210C944B
:10276000A90FCF92DF92EF92FF920F931F93CF9317
:10277000DF93CDB7DEB72B970FB6F894DEBF0FBE51
:10278000CDBF0E945A040E94A713811111C08FEF80
:1027900089838A831B820E9432218160782F9D83E6
:1027A0008C8349815A816B818D810E94951456C01A
:1027B00036E7E32E32E0F32E00E010E0C02E802F4B
:1027C0000E943A05F701D1907F01D82631F40F5FBE
:1027D0001F4F0E30110591F7DACF9091300391FF22
:1027E00004C08B870E9440058B8520E030E04D2D92
:1027F00050E0922FBA01022E02C0759567950A9497
:10280000E2F760FF25C02E83CF82EE24E394F12C03
:1028100002C0EE0CFF1C9A95E2F790E08E219F21FA
:1028200021E0892B09F420E028870E943221816071
:10283000782F9A8789874E815F8168858A850E9473
:102840009514F801EA58FD4F80818E25808306C0DB
:102850002F5F3F4F2630310561F6B9CF0E944223EA
:10286000109175020E9456131817A1F00E9456137A
:10287000809375022B960FB6F894DEBF0FBECDBFC6
:10288000DF91CF911F910F91FF90EF90DF90CF904C
:102890000C9444092B960FB6F894DEBF0FBECDBF43
:1028A000DF91CF911F910F91FF90EF90DF90CF902C
:1028B0000895DC0111964C9111975C91852F90E061
:1028C00021E030E001C0220F5A95EAF712966C9190
:1028D000129750E0662319F06091930205C0FA0147
:1028E000EC57FD4F608162236623B9F036E0349FD8
:1028F000F001359FF00D1124E80FF91FEE0FFF1FB7
:10290000EB5EFE4F808191818D939C93FA01EC5791
:10291000FD4F8081822B80830895FA01EC57FD4F93
:1029200020958081282320830895CF93DF93CDB70E
:10293000DEB72B970FB6F894DEBF0FBECDBF4F8327
:10294000588769877A878B878A859B85892B31F0A1
:102950005F3F11F080E003C04F3FE1F781E081115C
:1029600004C0CE0107960E945914DE01119686E03C
:10297000FD0111928A95E9F785E0FE0137960190F5
:102980000D928A95E1F749815A816B817C818D8115
:102990009E810E94191C2B960FB6F894DEBF0FBEC5
:1029A000CDBFDF91CF910895CF93DF931F92CDB725
:1029B000DEB7682F882309F402C18238C1F40E946F
:1029C000561381FDFCC069E38091030190910401DD
:1029D0000E9499200E94361F2FEF81EE94E0215033
:1029E00080409040E1F700C0000069E319C08338DF
:1029F00011F50E94561380FDE2C063E5809103014A
:102A0000909104010E9499200E94361FEFEFF1EE91
:102A100024E0E150F0402040E1F700C0000063E511
:102A200080910301909104010E94A4200F90DF91F6
:102A3000CF910C94361F8438C1F40E94561382FD46
:102A4000BEC067E480910301909104010E94992027
:102A50000E94361F8FEF91EEE4E081509040E040FD
:102A6000E1F700C0000067E4DBCF8CEF860F813A0E
:102A700070F4862F69830E946125698181119FC04E
:102A800080910301909104010E949920CFCF80E2B0
:102A9000860F883048F4677081E001C0880F6A951E
:102AA000EAF70E946C1FC2CF8BE5860F833088F453
:102AB000653A29F0663A31F482E890E005C081E891
:102AC00090E002C083E890E00F90DF91CF910C94EA
:102AD000781388E5860F853108F071C0683A61F196
:102AE000693A69F16A3A71F16B3A79F16C3A81F1BC
:102AF0006B3B89F16C3B91F16D3A99F1603BA1F12F
:102B00006E3AA9F16F3AB1F1613BB9F1623BC1F1A3
:102B1000633BC9F1643BD1F1653BD9F1663BE1F11F
:102B2000673BE9F1683BF1F1693BF9F16A3B09F078
:102B30003FC08AE292E03EC082EE90E03BC089EE68
:102B400090E038C08AEE90E035C085EB90E032C06E
:102B500086EB90E02FC083EB90E02CC084EB90E0FC
:102B600029C087EB90E026C08CEC90E023C08DEC70
:102B700090E020C083E891E01DC08AE891E01AC08F
:102B800082E991E017C084E991E014C081E292E00B
:102B900011C083E292E00EC084E292E00BC085E2B5
:102BA00092E008C086E292E005C087E292E002C0AF
:102BB00080E090E00F90DF91CF910C948E130F90F6
:102BC000DF91CF910895882309F45DC0823879F4AC
:102BD0000E94561381FF57C069E3809103019091D1
:102BE00004010E9499200E94361F69E310C08338B7
:102BF000B1F40E94561380FF46C063E58091030143
:102C0000909104010E9499200E94361F63E58091F3
:102C10000301909104010E94A4200C94361F843873
:102C200079F40E94561382FF2EC067E4809103015D
:102C3000909104010E9499200E94361F67E4E7CF1B
:102C40009CEF980F913A10F4682FE1CF90E2980F23
:102C5000983050F4877091E001C0990F8A95EAF797
:102C6000892F0E94721FD9CF9BE5980F933020F4D3
:102C700080E090E00C947813885A853120F480E04D
:102C800090E00C948E130895882321F00E946C1F0D
:102C90000C94361F0895882321F00E94721F0C9413
:102CA000361F08958F929F92BF92CF92DF92EF923C
:102CB000FF920F931F93CF93DF9300D0CDB7DEB772
:102CC0004C01472FFC01C580C2942FE0C222D28064
:102CD000DD2031F079836A830E94891F6A814981EE
:102CE00049836A830E942F1F49816A81882389F062
:102CF000DD2079F080E2860F883058F082E00E9473
:102D0000181F0E942F1FBB24B394B82649816A81E3
:102D100001C0B12CE42EE2949FE0E922F12CF701EE
:102D2000E859FF4F0C944A30842F807F142F1F7076
:102D3000882311F01295107FDD20C1F0112309F4D2
:102D4000D3C180E2860F883010F0611105C0812F59
:102D50006A830E946C1F04C0812F6A830E947C1FBB
:102D60006A816A830E94361F6A81BEC1862F6A8388
:102D70000E94E3156A81112309F40FC280E2860FD5
:102D8000883010F0611104C0812F0E94721F03C0AF
:102D9000812F0E94821F0E94361FFFC1242F207F97
:102DA000842F8F70203211F08295807F662319F076
:102DB0006130B9F020C0DD2049F0CC2009F44AC1CF
:102DC000F1E0CF1247C10E949C1FE7C1CC2021F047
:102DD00021E0C21609F4E1C189830E949F1F898105
:102DE0003FC1DD2029F091E09C1508F4D6C132C125
:102DF000C110D3C135C1DD2021F0CC2009F42AC196
:102E000073C1CC2009F42CC180C1242F26952695AE
:102E1000237030E02115310521F02130310561F0BA
:102E2000BCC1DD2021F0862F942F937002C080E07A
:102E300090E00E947813C1C1DD2021F0862F942FED
:102E4000937002C080E090E00E948E13B6C1DD2036
:102E5000F9F0653F51F0663F71F0643FA9F480914D
:102E6000A6039091A70381600BC08091A603909167
:102E7000A703826005C08091A6039091A703846098
:102E80009093A7038093A603862F0E944A2222C014
:102E9000653F51F0663F91F0643FC9F48091A6030D
:102EA0009091A7038E7F05C08091A6039091A70300
:102EB0008D7F9093A7038093A60309C02091A6035A
:102EC0003091A7032B7F3093A7032093A603862F6F
:102ED0000E94B2220E94372370C1842F837009F0B0
:102EE0004EC0D11066C1262F229526952770220F3D
:102EF000220F862F8F70C82ED12CE12CF12C022EA0
:102F000004C0CC0CDD1CEE1CFF1C0A94D2F764FF3D
:102F100010C06FE070E080E090E004C0660F771FA3
:102F2000881F991F2A95D2F7609570958095909586
:102F300003C060E070E0CB01242F26952695237016
:102F400030E02230310569F02330310589F06C29F9
:102F50007D298E299F292130310571F00E946A1D3B
:102F600028C16C297D298E299F290E947C1D21C1A1
:102F70000E946A1DC701B6010E94581D1AC1DD20BA
:102F800019F0842F817001C08695882309F411C13E
:102F9000262F229526952770220F220F862F8F70BD
:102FA000C82ED12CE12CF12C022E04C0CC0CDD1C3F
:102FB000EE1CFF1C0A94D2F764FF10C06FE070E0B3
:102FC00080E090E004C0660F771F881F991F2A9544
:102FD000D2F7609570958095909503C060E070E0A1
:102FE000CB01242F26952695237030E02230310521
:102FF00069F02330310589F06C297D298E299F29BC
:103000002130310571F00E94161ED3C06C297D2934
:103010008E299F290E94281ECCC00E94161EC7011F
:10302000B6010E94041EC5C0062F10E0F801E05E44
:10303000F109E531F10508F053C0E858FF4F0C9451
:103040004A30162F1F70842F8F71DD2031F00E94BF
:10305000AF1D812F0E944416A0C00E94CA1D812F5F
:103060000E944B169AC0DD2039F0C11096C0842F03
:103070008F710E94E91D91C0E1E0EC1508F48DC04C
:10308000F6CFDD2039F0842F8F710E94AF1D85C0EF
:10309000DD20C9F3842F8F710E94CA1D7EC0DD2000
:1030A00029F0842F8F710E94A01D77C00E949B1D64
:1030B00074C0DD2051F0142F1F71812F0E94AF1DAD
:1030C00063E0812F0E940F1F68C081E00E94181FDB
:1030D000F1E0FC1508F061C082E00E94181F5DC09D
:1030E000DD2031F0CC2079F2862F0E94D41455C017
:1030F000CC2081F2693349F42FEF87EE93E0215021
:1031000080409040E1F700C00000862F0E94E31548
:1031100044C04F70C4010E943A060E94C61C4DC0B4
:10312000623FA9F128F4603F49F0613FE1F020C01F
:10313000643FA1F050F0653F69F01AC0DD2049F10D
:103140008091930221E0822702C081E08D25809347
:1031500093021FC0D1101DC081E0F9CFD11019C05A
:103160001092930216C0CC2091F0D11012C0E8CF7B
:10317000CC2069F0862F49836A83DD2019F00E94F4
:10318000D41402C00E94E31549816A8102C0D09222
:1031900093024F70C4010E942A06E8E0EE16F10483
:1031A00041F05CF02AE0E21AF10882E0E816F1044E
:1031B00020F40E9456130E944409BB20F1F00E94A3
:1031C0000B1F80FD1AC0F40112820E94051F0E948D
:1031D000AF1DC4010E940B190E94051F0F900F9094
:1031E000DF91CF911F910F91FF90EF90DF90CF90E3
:1031F000BF909F908F900C94CA1D0F900F90DF91FD
:10320000CF911F910F91FF90EF90DF90CF90BF90E3
:103210009F908F9008950F931F93CF93DF93EC01AE
:10322000288139818B819C81892B31F03F3F11F0BE
:1032300080E003C02F3FE1F781E0811113C0CE0190
:103240000E947D06882371F0688179818A810E94BD
:10325000E21E8C010E943A1E0E94551DB801CE014B
:103260000E945216DF91CF911F910F9108950E94F5
:10327000891F0E94991F80910301909104010E946F
:10328000AF200E94361F0E94CB230E94372380E08C
:1032900090E00E94781380E090E00C948E130E94DE
:1032A000791F0C9437190E94D71EE92FE295EF7011
:1032B000F0E03297EE30F105B8F4E357FF4F0C948D
:1032C0004A30803F59F018F4803E70F407C0843FC4
:1032D00059F404C0803E10F0813F31F481E008953C
:1032E00093FB882780F9089580E00895CF93DF93BA
:1032F00000D000D01F92CDB7DEB70F900F900F9087
:103300000F900F90DF91CF910895CF93DF9300D06E
:1033100000D000D0CDB7DEB726960FB6F894DEBF4A
:103320000FBECDBFDF91CF9108951F93CF93DF9351
:10333000C091940216E080919502C81799F0D0E0F0
:103340001C9FF0011D9FF00D1124EA56FD4F408196
:10335000518162817381848195810E9485192196B2
:10336000C770E9CFDF91CF911F9108954091C602B8
:103370005091C7026091C8027091C9028091CA023F
:103380009091CB020C948519CF938091CB028295BA
:103390008F7009F05FC08091C802882309F45AC079
:1033A00020919402A09195026091C6027091C7028B
:1033B0008091C9029091CA0231E06F3F09F030E07C
:1033C000B32FC6E02A1709F445C0009721F07F3FCC
:1033D00021F44B2F03C041E001C040E030E040FD4C
:1033E00035C0C29FF001C39FF00D1124EA56FD4F76
:1033F000418174132BC04081641328C04281411164
:1034000025C0438154814817590710F44150510990
:10341000481B590B483C5105C8F48091CB028F7072
:1034200080618093CB0286E0829FF001839FF00D44
:103430001124E556FD4F80818F708061808386EC7A
:1034400092E00E940B19CF910C9495192F5F3F4F7A
:103450002770B8CFCF910895CF92DF92EF92FF926D
:103460000F931F93CF93DF93CDB7DEB762970FB65D
:10347000F894DEBF0FBECDBF8C0185E0F801DE0100
:103480001D9601900D928A95E1F7D8014C91119605
:103490005C91119712966C9112971396ED90FC9097
:1034A00014977091C602E091C7022091C902309131
:1034B000CA022115310531F0EF3F31F481E07F3F41
:1034C00019F403C081E001C080E0B82FB170CB2EA9
:1034D00080FD6CC1D090C802DD2009F4F5C0F091E8
:1034E000CB02E216F30638F0C701821B930B883C2F
:1034F000910548F09BC0209530952E0D3F1D283C2E
:10350000310508F093C08F2F807F09F052C0E5137A
:1035100014C0741312C0D62E61110FC0FF70F06179
:10352000F093CB020E94B61986EC92E00E940B1930
:103530008091CB02F80185836CC1EF2831F05F3FA9
:1035400031F481E04F3F19F403C081E001C080E015
:1035500080FD03C081E0862701C080E0F82FF17074
:10356000FF2E80FF1CC0809194022091950236E0CE
:10357000821709F428C190E0389FF001399FF00DBF
:103580001124EA56FD4F7181571306C0708147130D
:1035900003C07281671303C001968770E9CFD62EEE
:1035A000662309F436C18091CB0281608093CB02FF
:1035B00053C0E51308C0741306C0611104C0D801DC
:1035C0001596FC93AEC04D875E878D859E856A8B70
:1035D0000E9453196A89882329F1D62E662311F196
:1035E0002091CB02822F82958F7090E002970CF48D
:1035F00060C08091C6029091C70298878F83198618
:10360000FB86EA862C87CE01079651C0E51731F17B
:103610004D875E878D859E856A8B0E9453196A89C6
:1036200081112EC0C8010E940B19A4C08F2F807F6A
:1036300069F77E2DF98AE88A89890E94761986ECD5
:1036400092E00E940B19E6ECF2E086E0DF011D92A9
:103650008A95E9F70E94B619D12CDBC07413D8CF34
:103660006111D6CFD8011596FC93C8010E940B19A1
:10367000E6ECF2E086E0DF011D928A95E9F7C9C029
:10368000D62E662379F22091CB02822F82958F70FD
:1036900090E0029774F08091C6029091C7029A83DD
:1036A00089831B82FD82EC822E83CE0101960E94CB
:1036B0000B1986E0F801A6ECB2E001900D928A9514
:1036C000E1F70E94C4196FC0E216F30628F0C701A3
:1036D000821B930B9C0104C0209530952E0D3F1D3D
:1036E000283C310508F052C0D62E662309F49ACF43
:1036F000E5132CC074132AC08091CB0280FD1DC03D
:10370000982F92959F70C9F0D80115968C931597B4
:103710009F3039F09F5F9295907F8F70892B15961F
:103720008C93C8010E940B1986E0F801A6ECB2E068
:1037300001900D928A95E1F736C086E0F801A6EC7B
:10374000B2E001900D928A95E1F763C04D875E87E4
:103750008D859E850E945319882379F086E0F801B3
:10376000A6ECB2E001900D928A95E1F70E94C4198F
:103770000E94B619DD24D3944CC08091CB028160A5
:103780008093CB02C8010E940B1943C07E2DF98A99
:10379000E88A89890E947619E6ECF2E086E0DF018A
:1037A0001D928A95E9F70E94B61933C0662309F481
:1037B00039CF4D875E878D859E850E94531988235A
:1037C00009F430CFCBCF4D875E878D859E850E94D3
:1037D000D71E292F22952F7030E0223031052CF48E
:1037E0009F7041F0811106C00CC0243031052CF4CB
:1037F0009F7049F4805E883020F0C8010E940B1948
:10380000CF2CDC2C06C0D80115969C91907F91F7A7
:10381000F8CF8D2D62960FB6F894DEBF0FBECDBFE8
:10382000DF91CF911F910F91FF90EF90DF90CF909C
:1038300008951F93CF93DF93CDB7DEB72C970FB6C4
:10384000F894DEBF0FBECDBF4F83588769877A8754
:103850008B879C87CE0107960E942C1A8823C1F083
:103860002F8138858A859B85892B31F03F3F11F068
:1038700080E003C02F3FE1F781E0811147C04F8115
:10388000588569857A858B859C850E9485193EC0FF
:1038900086E0FE013796DE01119601900D928A9521
:1038A000E1F7FF81E8854A855B854115510531F0D7
:1038B000EF3F31F481E0FF3F19F403C081E001C024
:1038C00080E080FD23C02091950230E0C90101967F
:1038D000877099276091940270E086179707F1F13D
:1038E000F983EA835D834C8396E0929FD001939F96
:1038F000B00D1124AA56BD4FFE01319601900D92D4
:103900009A95E1F7809395020E94951916E08091AF
:10391000940290919502891779F1189FC0011124A2
:103920008A569D4F0E942C1A882331F1E09194020F
:103930001E9FF0011124EA56FD4F408151816281A2
:103940007381848195810E9485198091940290E011
:1039500001968770992780939402D9CF0E944F19BE
:103960001092950210929402E6ECF2E086E0DF01FC
:103970001D928A95E9F7CACF2C960FB6F894DEBF50
:103980000FBECDBFDF91CF911F910895EF92FF92AF
:103990000F931F93CF93DF939C01009709F471C09D
:1039A000F12CEE24E394E9012196F9018491843706
:1039B00040F4843008F056C0813081F0823021F12B
:1039C00060C0853709F449C0C0F19CE7980F903773
:1039D00008F057C08F770E94E31546C089010E5F3B
:1039E0001F4FFE01849190E2980F983050F4877039
:1039F000FE2D01C0FF0F8A95EAF78F2F0E948C1FC2
:103A000015C00E94D41414C089010E5F1F4FFE011F
:103A1000849190E2980F983068F48770FE2D01C071
:103A2000FF0F8A95EAF78F2F0E94921F0E94361F80
:103A3000E8011AC00E94E315FBCF2E5F3F4FFE0145
:103A4000C491CC2341F08FE99FE00197F1F700C0CA
:103A50000000C150F6CFE90107C0FE01F490E90172
:103A6000229602C00E94D4148F2D882341F0EFE9E2
:103A7000FFE03197F1F700C000008150F6CF9E01C2
:103A800092CFDF91CF911F910F91FF90EF9008950A
:103A900008950E94481D6093070370930803809364
:103AA000090390930A030C94371908950C94491D47
:103AB0000F931F93009107031091080320910903AE
:103AC00030910A03602B712B822B932B1F910F9146
:103AD0000C94491D0F931F93009107031091080345
:103AE0002091090330910A036023712382239323D9
:103AF0001F910F910C94491D0F931F930091070381
:103B0000109108032091090330910A03602771275F
:103B1000822793271F910F910C94491D08950E94AD
:103B20008E1D6093030370930403809305039093A9
:103B300006030C94371960E070E0CB010C948F1DE4
:103B400041E050E060E070E004C0440F551F661F84
:103B5000771F8A95D2F7CB01BA010C948F1D41E0F3
:103B600050E060E070E004C0440F551F661F771FEF
:103B70008A95D2F78091030390910403A0910503E5
:103B8000B0910603482B592B6A2B7B2BCB01BA0132
:103B90000C948F1D41E050E060E070E004C0440FE1
:103BA000551F661F771F8A95D2F7409550956095EF
:103BB00070958091030390910403A0910503B09147
:103BC0000603482359236A237B23CB01BA010C94B3
:103BD0008F1D41E050E060E070E004C0440F551FCD
:103BE000661F771F8A95D2F7809103039091040393
:103BF000A0910503B0910603482759276A277B2720
:103C0000CB01BA010C948F1D0F931F9300910303F6
:103C1000109104032091050330910603602B712B52
:103C2000822B932B1F910F910C948F1D0F931F9339
:103C300000910303109104032091050330910603C2
:103C400060237123822393231F910F910C948F1D66
:103C50000F931F9300910303109104032091050318
:103C60003091060360277127822793271F910F91B8
:103C70000C948F1D0895292F220F290F220F280F32
:103C8000422F4695469546952770B1E001C0BB0F7F
:103C90002A95EAF785E0489FA001112444535D4F1F
:103CA00080E090E070E0FA01E80FF91FA0819B012D
:103CB000082E02C0369527950A94E2F72170332723
:103CC00021952A272B232A272083019685309105C9
:103CD00051F70895292F220F290F220F280F622F45
:103CE000669566956695922F977085E0689FB001FE
:103CF000112464537D4F40E050E080E0FB01E40F6D
:103D0000F51F208130E0092E02C0369527950A94D0
:103D1000E2F721703327042E01C0220F0A94EAF73C
:103D2000822B4F5F5F4F4530510541F70895CF9289
:103D3000DF92EF92FF920F931F93CF93DF93EC01EB
:103D4000C0900703D0900803E0900903F0900A03A5
:103D50008091030390910403A0910503B0910603A1
:103D6000C82AD92AEA2AFB2A0FE110E0B701A601E6
:103D7000002E04C076956795579547950A94D2F71B
:103D800040FD05C00150110988F780E007C0BE0161
:103D9000802F0E9460090197A9F3802FDF91CF91B6
:103DA0001F910F91FF90EF90DF90CF900895CF93E8
:103DB000DF93EC010E94971EBE010E946009DF9113
:103DC000CF9108951F93CF93DF93EB0190919202CF
:103DD000992321F0CB010E94D71E13C0882349F0FC
:103DE000CB010E94971E182F682FCE010E943B1E08
:103DF00004C0CB010E946A1E182FBE01812F0E94B1
:103E00006009DF91CF911F91089580910B038595F3
:103E100085958595089580910B038770089598E0A6
:103E2000899F90011124622B60930B030C94AF1DAA
:103E300040910B038095842380930B03982F9770F8
:103E400069F450E0282F332727FD30954217530798
:103E500029F08595859585950C94CA1D08959091B6
:103E60000B03977081E009F480E00895E09103016D
:103E7000F091040180912F038083E0910301F09180
:103E80000401808190912E03892B8083E0910301AE
:103E9000F0910401808190912D03892B8083909172
:103EA0000C03992381F0E0910301F09104018081DA
:103EB000892B808380910301909104010E9432201C
:103EC000811110920C0380910301909104010C94D4
:103ED000621380912F03089590912F03982B909354
:103EE0002F030895809590912F03982390932F038B
:103EF000089510922F03089590912E03982B90937C
:103F00002E030895809590912E03982390932E036D
:103F1000089510922E03089590912D03982B90935D
:103F20002D030895809590912D03982390932D0350
:103F3000089510922D03089580930C030895109214
:103F40000C030895CF92DF92EF92FF920F931F938D
:103F50006C01EE24FF24C114D104E104F10421F426
:103F60006B017C0180E001C080E133272F2D1E2DE5
:103F70000D2D011511052105310519F0885F680126
:103F8000790197018601A4E0369527951795079545
:103F9000AA95D1F7011511052105310519F08C5F9E
:103FA0006801790197018601F2E03695279517950A
:103FB0000795FA95D1F7011511052105310519F07D
:103FC0008E5F68017901B701A601769567955795CF
:103FD0004795452B462B472B09F08F5F1F910F917B
:103FE000FF90EF90DF90CF9008956DEE7EEF80E030
:103FF00090E00E94823060E082E090E00E946430B5
:1040000060E083E090E00E94643060E084E090E053
:104010000E94643060E085E090E00E94643040E0FF
:1040200050E0BA0188E090E00C94763080E090E0B7
:104030000E945E3021E08D3E9E4F09F020E0822FED
:10404000089582E090E00C94503083E090E00C946E
:10405000503084E090E00C945030682F84E090E081
:104060000C94643020E030E040E0FC01E20FF31FEC
:10407000518151114F5F2F5F3F4F2F313105A9F70C
:10408000842F089520E030E04FEFFC01E20FF31F92
:104090005281561799F04F3F19F4511101C0422F28
:1040A0002F5F3F4F2E31310581F74F3F39F0FC0133
:1040B000E40FF11D47FDFA9562830895089520E00D
:1040C00030E0FC01E20FF31F4281461301C012826F
:1040D0002F5F3F4F2E313105A1F70895262F2695EA
:1040E000269526952F3170F4FC01E20FF11D6770C3
:1040F00021E030E0062E01C0220F0A94EAF7818108
:10410000822B81830895262F2695269526952F317B
:1041100078F4FC01E20FF11D677021E030E0062E1B
:1041200001C0220F0A94EAF7209581812823218378
:10413000089520911401222329F02091AC0327FD3A
:104140000C946E200C94422020911401222329F01B
:104150002091AC0327FD0C9483200C945F2020E079
:1041600030E0FC01E20FF31F11822F5F3F4F2F3130
:104170003105B9F708958091B203843021F110928E
:10418000310320E488E190E00FB6F894A89580937D
:1041900060000FBE2093600080E00E94440983B756
:1041A000817F846083BF83B7816083BF7894889563
:1041B00083B78E7F83BF88E10FB6F8948093600049
:1041C000109260000FBE08950895CF930E940C04D2
:1041D0000E945A040E94E420C0E08C2F0E943A05FD
:1041E000811105C0CF5FCE30C1F780E001C081E012
:1041F000CF9108950E944F190E9456130C944409C0
:104200001F920F920FB60F9211248F939F93AF932B
:10421000BF9380913103811113C08091A8039091C5
:10422000A903A091AA03B091AB034196A11DB11DB2
:104230008093A8039093A903A093AA03B093AB0320
:10424000BF91AF919F918F910F900FBE0F901F90D4
:10425000189582E084BD93E095BD9AEF97BD809359
:104260006E0008952FB7F8948091A8039091A90348
:10427000A091AA03B091AB032FBF0895CF92DF9214
:10428000EF92FF920F931F932FB7F8944091A803DA
:104290005091A9036091AA037091AB032FBF6A01EB
:1042A0007B01EE24FF248C0120E030E0C016D10613
:1042B000E206F30610F441505109481B590BCA019C
:1042C0001F910F91FF90EF90DF90CF900895789419
:1042D0001F920F920FB60F9211248F939F93AF935B
:1042E000BF938091A8039091A903A091AA03B091D4
:1042F000AB030196A11DB11D8093A8039093A90360
:10430000A093AA03B093AB03BF91AF919F918F91FC
:104310000F900FBE0F901F9018950E94172AF894C7
:104320002FEF87EA91E6215080409040E1F700C0EE
:10433000000087E090EBDC018093BB039093BC030B
:10434000A093BD03B093BE032CE088E190E00FB6CC
:10435000F894A895809360000FBE20936000FFCF73
:104360000E941620811102C00E94F51F0E94212088
:10437000809330030E94292090E09093AD038093B6
:10438000AC030E942520682F70E080E090E00C9440
:10439000561D8091350380FF0BC06091080185E0B8
:1043A000689FB001112475956795759567952AC02A
:1043B00081FF09C06091080185E0689FB001112468
:1043C000759567951FC082FF07C06091080185E061
:1043D000689FB001112416C0409136034423C9F0F0
:1043E00060910701461788F72091080185E0289F12
:1043F00090011124429FC001439F900D112470E051
:104400000E9436306038710540F46115710539F04D
:1044100002C065E070E0862F08958FE7089581E07F
:1044200008958091350380FF08C06091060170E017
:10443000759567957595679521C081FF06C0609158
:10444000060170E07595679519C082FF04C0609100
:10445000060170E010C0809136038823C1F060919E
:1044600005018617A0F790910601989FC0011124BD
:1044700070E00E9436306038710528F461157105CE
:1044800021F0862F08958FE7089581E0089561E077
:1044900070E0F4CF803F21F40E94C921819504C0CF
:1044A000813F29F40E94C921809339030895823FF6
:1044B00021F40E94C921819504C0833F29F40E9400
:1044C000C921809338030895893F19F40E9411226D
:1044D00005C08A3F31F40E941122819580933A03EE
:1044E00008958B3F21F40E941122819504C08C3FD6
:1044F00029F40E94112280933B030895843F21F404
:1045000080913703816017C0853F21F48091370384
:10451000826011C0863F21F48091370384600BC014
:10452000873F21F480913703886005C0883F31F4CC
:104530008091370380618093370308958D3F21F484
:104540008091350381600BC08E3F21F4809135034B
:10455000826005C08F3F29F4809135038460809389
:1045600035030895803F39F48091390387FF6CC08B
:104570001092390369C0813F29F4809139031816DC
:10458000BCF362C090913803823F29F497FF5CC06E
:104590001092380359C0833F19F41916CCF354C054
:1045A000893F41F480913A0318160CF04DC01092E7
:1045B0003A034AC08A3F29F480913A0387FF44C0F6
:1045C000F6CF8B3F39F480913B0387FF3DC01092BB
:1045D0003B033AC08C3F29F480913B031816BCF38F
:1045E00033C0843F21F4809137038E7F17C0853F0D
:1045F00021F4809137038D7F11C0863F21F4809193
:1046000037038B7F0BC0873F21F480913703877F6F
:1046100005C0883F31F4809137038F7E8093370344
:1046200013C08D3F21F4809135038E7F0BC08E3FE8
:1046300021F4809135038D7F05C08F3F29F480914F
:1046400035038B7F809335038091380381110EC031
:104650008091390381110AC080913A03811106C00B
:1046600080913B03811102C010923603089587E3C5
:1046700093E00E946D130E94322190933303809344
:10468000320308951F93CF93DF938091320390916B
:1046900033030E943E2140913603442321F02091B0
:1046A000090130E006C0209134035AE0259F9001B3
:1046B00011248217930708F46AC08091380310917F
:1046C0003903D0913A03C0913B03811107C0111106
:1046D00005C0D11103C0CC2309F459C04F3F19F0D4
:1046E0004F5F40933603181624F40E94C92180932B
:1046F00038038091380387FF05C00E94C921819546
:1047000080933803111624F40E94C9218093390341
:104710008091390387FF05C00E94C921819580934C
:10472000390320913803222379F04091390344233F
:1047300059F055EB250390011124309338034503BC
:10474000C0011124909339031D1624F40E941122F4
:1047500080933A0380913A0387FF05C00E9411229B
:10476000819580933A031C1624F40E9411228093B1
:104770003B0380913B0387FF05C00E941122819576
:1047800080933B03DF91CF911F910C943723DF91EE
:10479000CF911F910895E7E3F3E085E0DF011D92DB
:1047A0008A95E9F710923603109235030895833005
:1047B00081F128F4813059F08230D1F008958530AC
:1047C00009F449C0B8F1863009F456C00895209123
:1047D0003403862F90E0820F911D8F3F910520F4C6
:1047E000620F6093340308958FEF8093340308952C
:1047F00020910901862F90E0820F911D8F3F910536
:1048000020F4620F6093090108958FEF80930901EE
:10481000089520910801862F90E0820F911D8F3F0F
:10482000910520F4620F6093080108958FEF809343
:104830000801089520910701862F90E0820F911DB5
:104840008F3F910520F4620F6093070108958FEF69
:1048500080930701089520910601862F90E0820F32
:10486000911D8F3F910520F4620F6093060108951A
:104870008FEF80930601089520910501862F90E027
:10488000820F911D8F3F910520F4620F6093050107
:1048900008958FEF809305010895833011F128F476
:1048A000813049F0823091F00895853081F120F116
:1048B0008630C1F1089580913403681720F4861B77
:1048C0008093340308951092340308958091090170
:1048D000681720F4861B809309010895109209013E
:1048E000089580910801681720F4861B80930801C1
:1048F000089510920801089580910701681720F427
:10490000861B8093070108951092070108958091F6
:104910000601681720F4861B809306010895109203
:104920000601089580910501681720F4861B809385
:1049300005010895109205010895873220F58E3102
:1049400008F098C0803109F474C070F4873009F41D
:104950004CC018F4863089F12EC08B3009F4A0C009
:104960008E3009F45CC027C0863109F499C020F468
:10497000813109F46FC01FC0893109F491C08B31B6
:1049800009F443C018C0883309F48AC050F489324E
:1049900009F47EC0853309F47BC0873209F478C0FE
:1049A0000AC0833409F474C020F48A3308F060C06C
:1049B00002C0883461F080E0089580913003817FE7
:1049C0008E7F8093300381E080933D0308950E94A1
:1049D0004F192FEF83ED90E3215080409040E1F795
:1049E00000C000000E948D215BC090913003892F90
:1049F0008095817080FB90F990933003811150C0B5
:104A0000997F977F909330034BC09091300391FB37
:104A1000882780F921E0822780FB91F913C09091CB
:104A2000300392FB882780F921E0822780FB92F9EE
:104A300009C09091300393FB882780F921E08227F9
:104A400080FB93F990933003882351F19160909308
:104A5000300308950E944F199091AC0397FB88276B
:104A600080F921E0822780FB97F99093AC0318C06E
:104A700027EC01C023EE280F61E070E080E090E0B9
:104A800004C0660F771F881F991F2A95D2F704C0AC
:104A900061E070E080E090E00E94561D0E944F1996
:104AA00081E0089580E0089580E008958E518A3075
:104AB00030F4E82FF0E0E354FE4F8081089580E069
:104AC0000895CF93C82F80913D03813079F018F07D
:104AD0008230D1F182C0E0910301F0910401808124
:104AE000813169F0823209F07AC009C0E091030196
:104AF000F09104018081813111F0823249F48C2FD0
:104B00000E94522581111DC08C2F0E949D241AC025
:104B10008C2F0E945425811114C0C43179F048F4BF
:104B2000CB3079F0C03109F05EC082E080933D0364
:104B300008C0C93219F0C83321F055C010923D03A6
:104B400052C081E0817051C0C93279F108F5C43199
:104B500061F1A0F4C73009F044C01092340384E13D
:104B600080930901C09308018CE38093070188E0DA
:104B70008093060188E28093050133C082EE8C0F9A
:104B8000863078F58C2F0E94562580933C0329C0EF
:104B9000CE34E9F020F4CB3421F56AE013C0C135FE
:104BA00079F0C235F1F461E00DC080913C038823B7
:104BB00019F010923C0315C081E080933D0315C0AD
:104BC00061E006C080913C030E94D7230AC06AE0DE
:104BD00080913C030E944D2404C010923D0380E06C
:104BE00004C081E002C080E0ADCFCF9108958091F4
:104BF0005E0308950F931F93CF93DF9300D01F920E
:104C0000CDB7DEB78C010E946828823011F0843065
:104C100019F583E089831B830A838093E9008FEF72
:104C20009091E800815095FD06C095ED9A95F1F7B9
:104C300000008111F5CF8091E80085FF0DC040E0B4
:104C400050E063E070E0CE0101960E9485288091DB
:104C5000E8008E778093E8000F900F900F90DF911F
:104C6000CF911F910F910895CF93DF9300D01F92A2
:104C7000CDB7DEB72091B203243031F522E029838D
:104C8000805891099B838A8383E08093E9008FEFAA
:104C90009091E800815095FD06C095ED9A95F1F749
:104CA00000008111F5CF8091E80085FF0DC040E044
:104CB00050E063E070E0CE0101960E94852880916B
:104CC000E8008E778093E8000F900F900F90DF91AF
:104CD000CF910895CF93DF93EC010E946828823032
:104CE00011F08430F9F482E08093E9008FEF909125
:104CF000E800815095FD06C095ED9A95F1F700000A
:104D00008111F5CF8091E80085FF0CC040E050E0B4
:104D100065E070E0CE010E9485288091E8008E77E2
:104D20008093E800DF91CF910895CF93DF93EC015A
:104D30000E946828823019F0843009F047C08091C1
:104D400014018823E1F08091AC0387FF18C084E050
:104D50008093E9008FEF9091E800815095FD06C0A7
:104D600095E19A95F1F700008111F5CF8091E80067
:104D700085FF2CC040E050E060E270E017C081E0A9
:104D80008093E9008FEF9091E800815095FD06C077
:104D900095ED9A95F1F700008111F5CF8091E8002B
:104DA00085FF14C040E050E068E070E0CE010E9452
:104DB00085288091E8008E778093E80080E2FE01EC
:104DC000AEE3B3E001900D928A95E1F7DF91CF91C8
:104DD00008958091B103811109C00E94172A0E9491
:104DE000742A8091E20084608093E200089510921A
:104DF000B1030895089508950C94FA2042E061ECFF
:104E000081E00E94912942E061EC82E00E949129B8
:104E100042E061EC83E00E94912942E261EC84E08F
:104E20000C9491298091B403833009F455C030F477
:104E3000813071F0823009F48EC008958A3009F40F
:104E40007AC08B3009F460C0893009F09CC020C062
:104E50008091B303813A09F096C08091E800877F82
:104E60008093E8008091B7039091B803892B21F0DB
:104E700060E080E090E003C060E28EE393E070E0E9
:104E80000E94CE288091E8008B778093E8000895F7
:104E90008091B303813209F076C08091B70390917D
:104EA000B803009719F0039709F06DC08091E800EE
:104EB000877F8093E8008091E80082FD05C08091A3
:104EC000B2038111F8CF5FC08091F10080935E033F
:104ED0008091E8008B7753C08091B303813A09F049
:104EE00052C08091B7039091B803892B09F04BC051
:104EF0008091E800877F8093E8008091E80080FF40
:104F0000FCCF8091140136C08091B3038132D9F572
:104F10008091B7039091B803892BA9F58091E8009F
:104F2000877F8093E8000E94C6298091B503809313
:104F300014010C944F198091B303813221F58091B3
:104F4000E800877F8093E8000E94C6298091B6031D
:104F500080935F0308958091B303813AA1F4809117
:104F6000E800877F8093E8008091E80080FFFCCF15
:104F700080915F038093F1008091E8008E778093A9
:104F8000E8000C94C629089584B7877F84BF88E120
:104F90000FB6F89480936000109260000FBE80E816
:104FA00080936100109261000E94A5130E94172A4D
:104FB0000E94742A8091E20084608093E2007894D9
:104FC0000E94F72C0E94A9138AE091E00E945113DD
:104FD0008091B203853069F40E94BB208091B003B8
:104FE0008823B1F30E94E520882391F30E946F2863
:104FF000EFCF0E94B1130E945412EACF292F33271A
:1050000023303105A9F06CF42130310509F442C098
:105010002230310509F043C08DE690E02AED34E0FE
:1050200042C021323105C9F02232310519F137C0B1
:1050300099278130910541F08230910541F0892B0B
:1050400071F5E6EDF4E005C0EEEBF4E002C0E6EA4F
:10505000F4E0849190E09F0126C064307105F8F47B
:10506000FB01EE0FFF1FED52FE4F2081318189E0E1
:1050700090E019C06430710590F4FB01EE0FFF1F42
:10508000E553FE4F20813181FB01E953FE4F8081C2
:1050900090E009C082E190E027E435E004C080E0C0
:1050A00090E020E030E0FA013183208308950895F4
:1050B000CF93C82F0E945728C0936003CF910895C3
:1050C0008091B203843011F482E0089581E0089564
:1050D00080916003811102C00C946028089580E1E2
:1050E00089BD82E189BD09B400FEFDCF8091D80061
:1050F0008F7D8093D8008091E00082608093E000F3
:105100008091E00081FDFCCF0895CF92DF92EF9275
:10511000FF920F931F93CF93DF937C018B01EA01E2
:105120000E94E729811131C0209731F0888199814F
:10513000081B190BE80EF91EC12CD12C0115110505
:1051400019F18091E80085FD14C08091E8008E7708
:105150008093E800209741F0888199818C0D9D1DF6
:105160009983888385E011C00E94E729882331F361
:105170000CC0F70181917F018093F100015011096A
:10518000FFEFCF1ADF0ADACF80E0DF91CF911F91D6
:105190000F91FF90EF90DF90CF9008952091B90389
:1051A0003091BA032617370748F06115710539F4B5
:1051B0002091E8002E772093E80001C0B901FC019E
:1051C00020E061157105B9F18091B203882309F4DB
:1051D00040C0853009F43FC08091E80083FD3DC0A8
:1051E0008091E80082FF06C08091E80082FF26C01F
:1051F00080E008958091E80080FFE3CF2091F300E4
:105200008091F20090E0922B6115710551F0883089
:10521000910538F421912093F100615071090196B4
:10522000F3CF21E0089709F020E08091E8008E7725
:105230008093E800C6CF2111C7CFD6CF8091B203AB
:10524000882339F0853039F08091E80083FFCCCF96
:1052500004C082E0089583E0089581E008952091DC
:10526000B9033091BA032617370748F06115710565
:1052700039F42091E8002E772093E80001C0B901AD
:10528000FC0120E061157105C1F18091B203882312
:1052900009F441C0853009F440C08091E80083FDE5
:1052A0003EC08091E80082FF06C08091E80082FF46
:1052B00027C080E008958091E80080FFE3CF20912F
:1052C000F3008091F20090E0922B6115710559F086
:1052D0008830910540F424912093F100319661507B
:1052E00071090196F2CF21E0089709F020E0809142
:1052F000E8008E778093E800C5CF2111C6CFD5CFC7
:105300008091B203882339F0853039F08091E8002C
:1053100083FFCBCF04C082E0089583E0089581E04D
:105320000895982F973058F59093E900981739F021
:105330007091EC002091ED005091F00003C0242FFB
:10534000762F50E021FF19C03091EB003E7F309363
:10535000EB003091ED003D7F3093ED003091EB009C
:1053600031603093EB007093EC002093ED0050938C
:10537000F0002091EE0027FF07C09F5FD3CF8F7012
:105380008093E90081E0089580E008958091B3035F
:1053900087FD05C08091E80080FF0EC012C080919B
:1053A000E80082FD05C08091B2038111F8CF089515
:1053B0008091E8008B7708C08091B2038111EACF19
:1053C00008958091E8008E778093E8000895809199
:1053D000E4009091E50045E62091EC0020FF21C01B
:1053E0002091E80020FD21C02091B203222389F002
:1053F000253089F02091EB0025FD0FC02091E400BD
:105400003091E5002817390739F3415041F0C901BF
:10541000E3CF82E0089583E0089581E0089584E079
:1054200008952091E80022FFDFCF80E008950E94D8
:10543000852A0E948D2AE0EEF0E0808181608083E1
:10544000E8EDF0E080818F77808319BCA7EDB0E0B4
:105450008C918E7F8C9380818F7E80831092B1039C
:1054600008950F931F93CF93DF930E94852A0E9484
:105470008D2AC8EDD0E088818F7788838881806805
:10548000888388818F7D888319BC1092B203109223
:10549000AE031092B0031092AF0300EE10E0F801DB
:1054A00080818B7F808388818160888342E060E097
:1054B00080E00E949129E1EEF0E080818E7F808380
:1054C000E2EEF0E08081816080838081886080836B
:1054D000F80180818E7F8083888180618883DF915D
:1054E000CF911F910F910895E8EDF0E080818F7EBC
:1054F0008083E7EDF0E080818160808384E082BF7B
:1055000081E08093B1030C94312AE8EDF0E08081D2
:105510008E7F80831092E20008951092DA0010923C
:10552000E10008951F920F920FB60F9211242F934E
:105530003F934F935F936F937F938F939F93AF931B
:10554000BF93EF93FF938091E10082FF0BC08091A6
:10555000E20082FF07C08091E1008B7F8093E10031
:105560000E94F62C8091DA0080FF1FC08091D80045
:1055700080FF1BC08091DA008E7F8093DA008091DB
:10558000D90080FF0DC080E189BD82E189BD09B4E9
:1055900000FEFDCF81E08093B2030E94E92605C0A2
:1055A00019BC1092B2030E94F7268091E10080FF9F
:1055B00019C08091E20080FF15C08091E2008E7FCB
:1055C0008093E2008091E20080618093E20080910C
:1055D000D80080628093D80019BC85E08093B20324
:1055E0000E94FB268091E10084FF30C08091E200A0
:1055F00084FF2CC080E189BD82E189BD09B400FE31
:10560000FDCF8091D8008F7D8093D8008091E100FC
:105610008F7E8093E1008091E2008F7E8093E20094
:105620008091E20081608093E2008091AE03882344
:1056300011F084E007C08091E30087FF02C083E09F
:1056400001C081E08093B2030E94FC268091E100BA
:1056500083FF29C08091E20083FF25C08091E10093
:10566000877F8093E10082E08093B2031092AE03C3
:105670008091E1008E7F8093E1008091E2008E7F37
:105680008093E2008091E20080618093E20042E03A
:1056900060E080E00E9491298091F0008860809312
:1056A000F0000E94FA26FF91EF91BF91AF919F9178
:1056B0008F917F916F915F914F913F912F910F90BB
:1056C0000FBE0F901F9018951F920F920FB60F925A
:1056D00011242F933F934F935F936F937F938F93F7
:1056E0009F93AF93BF93CF93EF93FF93C091E90044
:1056F000CF708091EC001092E9008091F000877FDC
:105700008093F00078940E94A02B1092E900809181
:10571000F00088608093F000C093E900FF91EF9162
:10572000CF91BF91AF919F918F917F916F915F9139
:105730004F913F912F910F900FBE0F901F90189592
:105740001F93CF93DF93CDB7DEB7AA970FB6F89428
:10575000DEBF0FBECDBFE3EBF3E08091F10081939C
:1057600023E0EB3BF207C9F70E9412278091E80083
:1057700083FF24C12091B3033091B403832F90E0C1
:105780008A30910508F01AC1FC01E556FF4F0C94D0
:105790004A30203821F0223809F010C108C0809129
:1057A000AF039091B003992389F082600FC080917C
:1057B000B7038F70873008F001C18093E9008091B2
:1057C000EB0085FB882780F91092E9009091E800B2
:1057D000977F9093E8008093F1001092F100CCC085
:1057E000822F8D7F09F0EAC0222319F0223061F068
:1057F000E5C08091B503813009F0E0C0333009F095
:1058000080E08093B0032AC08091B503811126C047
:105810002091B7032F708FEF820F863008F0CEC033
:105820002093E9008091EB0080FF18C08091EB008D
:10583000333011F4806210C080618093EB0081E00E
:1058400090E001C0880F2A95EAF78093EA00109251
:10585000EA008091EB0088608093EB001092E900F1
:105860008091E800877F8093E8000E94C629A6C047
:105870002111A4C01091B5031F778091E3008078B7
:10588000812B8093E3008091E800877F8093E8007C
:105890000E94C6298091E80080FFFCCF8091E30040
:1058A00080688093E300112311F083E001C082E05F
:1058B0008093B20383C02058223008F07FC08091CB
:1058C000B5039091B6038C3D23E0920779F583E010
:1058D0008A838AE289834FB7F894DE01139620E029
:1058E0003EE051E2E32FF0E050935700E49120FFB7
:1058F00003C0E295EF703F5FEF708E2F90E0EA30CB
:1059000010F0C79601C0C0968D939D932F5F2431F0
:1059100049F74FBF8091E800877F8093E8006AE2F3
:1059200070E0CE0101960E94CE2815C06091B703A9
:105930007091B803AE014F5F5F4F0E94FE27009742
:10594000E9F12091E800277F2093E800BC018981DC
:105950009A810E942F298091E8008B778093E8003C
:105960002DC0203859F58091E800877F8093E800AA
:105970008091AE038093F1008091E8008E7773CF21
:1059800021111CC09091B5039230C0F48091E800C1
:10599000877F8093E8009093AE030E94C629809190
:1059A000AE03811104C08091E30087FF02C084E050
:1059B00001C081E08093B2030E94FE268091E8003E
:1059C00083FF0AC08091E800877F8093E800809180
:1059D000EB0080628093EB00AA960FB6F894DEBFCE
:1059E0000FBECDBFDF91CF911F9108950895CF9342
:1059F0008091B2038823B1F08091E9008F7090917B
:105A0000EC0090FF02C090E801C090E0C92FC82BC5
:105A10001092E9008091E80083FD0E94A02BCF70D6
:105A2000C093E900CF9108955058BB27AA270ED004
:105A30009EC18FD130F094D120F031F49F3F11F40A
:105A40001EF45FC10EF4E095E7FB55C1E92FA0D12C
:105A500080F3BA17620773078407950718F071F48B
:105A60009EF5B8C10EF4E0950B2EBA2FA02D0B01B8
:105A7000B90190010C01CA01A0011124FF27591B93
:105A800099F0593F50F4503E68F11A16F040A22F99
:105A9000232F342F4427585FF3CF4695379527950A
:105AA000A795F0405395C9F77EF41F16BA0B620B09
:105AB000730B840BBAF09150A1F0FF0FBB1F661F50
:105AC000771F881FC2F70EC0BA0F621F731F841F93
:105AD00048F4879577956795B795F7959E3F08F0B9
